:100000000C94F3020C941B030C941B030C941B0321
:100010000C941B030C941B030C941B030C941B03E8
:100020000C941B030C941B030C941B030C941B03D8
:100030000C941B030C941B030C941B030C941B03C8
:100040000C94AA070C941B030C941B030C941B0325
:100050000C941B030C941B030C941B030C941B03A8
:100060000C941B030C941B03000000080002010009
:10007000000304070000000000000000460200002A
:1000800000FF0800053E5B4F5B3E053E6B4F6B3E3D
:10009000051C3E7C3E1C05183C7E3C18051C577D0B
:1000A000571C051C5E7F5E1C0400183C1805FFE70A
:1000B000C3E7FF040018241805FFE7DBE7FF05305E
:1000C000483A060E05262979292605407F050507A9
:1000D00005407F05253F055A3CE73C5A057F3E1CFD
:1000E0001C0805081C1C3E7F0514227F221405FFF6
:1000F000FFFFFFFF05F0F0F0F0F003FFFFFF05004A
:100100000000FFFF050F0F0F0F0F0508047E040806
:100110000510207E20100508082A1C0805081C2A46
:10012000080805AA005500AA05AA55AA55AA05302F
:10013000383E383005060E3E0E06020000015F0311
:1001400007000705147F147F1405444AFF4A32054F
:1001500063130864630536494936480107033E4185
:10016000410341413E05082A1C2A080508083E08AB
:10017000080260E0040808080802606005601008D2
:100180000403053E5149453E03427F4005714949FC
:100190004946054149494936050F0808087F054F7A
:1001A00049494931053E4949493005030101017F6B
:1001B00005364949493605064949493E026C6C02F3
:1001C0006CEC0308142204141414140322140805FC
:1001D0000159090906053E415D594E057E09090987
:1001E0007E057F49494936053E41414141057F41F0
:1001F00041413E057F49494941057F0909090105FA
:100200003E41414979057F0808087F03417F410548
:10021000304141413F057F08142241057F40404065
:1002200040057F020C027F057F0408107F053E41D8
:1002300041413E057F09090906053E4141617E05B0
:100240007F091929460546494949310501017F01C0
:1002500001053F4040403F051F2040201F053F4013
:1002600038403F056314081463050304780403054C
:100270006151494543037F41410503040810600370
:1002800041417F0504020102040480808080030153
:100290000204043844447C047F4444380438444411
:1002A00044043844447F043854545804047E0501FF
:1002B0000418A4A47C047F040478017D0384857C55
:1002C000047F102844017F057C04780478047C04B2
:1002D0000478043844443804FC24241804182424E2
:1002E000FC047C040408045854543403047F0404BC
:1002F0003C40407C041C20407C053C4030403C0499
:100300006C10106C041CA0A07C046454544C0408B1
:10031000364141017F0441413608040201020105D2
:100320007F4141417F053E5555554105384444388C
:1003300044057C2A2A3E14057E0202060605027E3A
:10034000027E02056355494163053844443C040577
:10035000407E201E200506027E0202086313086408
:1003600063006060052A2A2A2A2A03514A4403446A
:100370004A51050000FF010303E080FF05361236F5
:10038000243603020502021818021010053040FF3F
:100390000101041F01011E000000000901017F018D
:1003A0007F020C027F0000000000000100017D04BC
:1003B00018247E2404447E454105221C141C220579
:1003C000012A7C2A010177044E55553903020002A7
:1003D000077E81BDA5A5817E0326292F0508142A45
:1003E0001422040808081803080808077E81BD9530
:1003F000A9817E0501010101010302050203242EEA
:1004000024031915120315150A02020104F82040ED
:10041000780506097F017F021818040080A0C00338
:10042000121F10032629260522142A140808402F1B
:100430001008041E117C08402F10080462554C0956
:1004400015553F1008041E117C053048484D4005E5
:100450007815161478057814161578057A1514157C
:100460007A05781615167905781514157805781417
:10047000151478077E09097F494941059EA161212C
:1004800021057C54554644057C54564544057E550B
:10049000544546057C5554454403457E4403447EFB
:1004A0004503467D4603457C4505087F49413E0599
:1004B0007C0A11227D0538444546380538444645B6
:1004C00038053A4544453A053846454639053845E4
:1004D000444538052214081422057C625A463E051C
:1004E0003C4041423C053C4042413C053C4241428B
:1004F0003C053C4140413C0502047A0502043F12A0
:10050000120C057E49494E30043845467C04384477
:10051000467D043846457E043A45467D04384544C8
:100520007D04304A4D7A0720545438545458049C62
:10053000A262220438555658043854565904385685
:10054000555A043855545902017A027A0103027946
:10055000020302780204304B4B3C047A090A71040E
:1005600030494A300430484A3104304A4932043272
:10057000494A3104394444390508082A080804382E
:10058000544C3804384142780438404279043842A7
:10059000417A043A40407A0418A0A27904FC282841
:1005A00010041AA0A07A00000000250028002B00EB
:1005B00000000000240027002A00040404040404AE
:1005C0000404020202020202030303030303010202
:1005D00004081020408001020408102001020408D1
:1005E0001020520A660A11241FBECFEFD8E0DEBFEA
:1005F000CDBF11E0A0E0B1E0EEE9F7E102C0059067
:100600000D92A831B107D9F721E0A8E1B1E001C00E
:100610001D92A13AB207E1F712E0C2EFD2E004C0A6
:100620002197FE010E94890AC13FD107C9F70E94A4
:10063000F4070C94C20B0C940000829590E09C018E
:1006400035952795359527952373880F991F880F22
:10065000991F8C7C282B30E0C9019595879585756D
:10066000220F331F2A7A822B08958F929F92AF9286
:10067000BF92CF92DF92EF92FF92CF93DF934091A0
:10068000870190918001992309F454C0E62FF0E08E
:1006900090918101992309F447C027E030E02E1B97
:1006A0003F0B91E001C0990F2A95EAF7841708F0F3
:1006B0007AC0609188017091890129E0829F600D64
:1006C000711D1124E091820130E020E080E0A7E07C
:1006D000B0E0C12CD12C7601C394F22FAD01421BA6
:1006E000530BE11101C0A901460F571FEA014881D0
:1006F000492351F04601570104C0880C991CAA1CDB
:10070000BB1CFA95D2F788292F5F3F4F283031055F
:1007100021F7DF91CF91FF90EF90DF90CF90BF90C6
:10072000AF909F908F90089591E001C0990F6A95C6
:10073000EAF7BCCF8417B8F5209188013091890180
:10074000F90149E0849FE00DF11D1124CF012091B2
:10075000820170E0309181013323C1F0222331F016
:1007600027E030E0E901C61BD70BBE01680F791FF7
:10077000FB018081DF91CF91FF90EF90DF90CF90D0
:10078000BF90AF909F908F900C941D03222331F067
:1007900027E030E0A901461B570BBA01680F791F0B
:1007A000EB018881B6CF80E0B4CF90E0FC01E2534A
:1007B000FA4F249186549A4FFC018491882399F032
:1007C00090E0880F991FFC01E055FA4FA591B49174
:1007D000FC01EA55FA4F859194918FB7F894EC910A
:1007E000E22BEC938FBF089590E0FC01E859FF4F96
:1007F0002491FC01E253FA4F3491FC01E654FA4F84
:10080000E491EE23C9F0222339F0233001F1A8F45A
:10081000213019F1223029F1F0E0EE0FFF1FEA55E7
:10082000FA4FA591B4918FB7F894EC91611126C05D
:1008300030953E233C938FBF08952730A9F0283090
:10084000C9F0243049F7809180008F7D03C08091EA
:1008500080008F7780938000DFCF84B58F7784BD51
:10086000DBCF84B58F7DFBCF8091B0008F778093F5
:10087000B000D2CF8091B0008F7DF9CF3E2BDACF80
:10088000CF92DF92EF92FF920F931F93CF93DF935C
:10089000809186018823A1F080917D01882361F0F9
:1008A0008FB7F89490917D01913071F59DB390933D
:1008B0007C019DB39DBB8FBF80E58CBD81E08DBD6C
:1008C00060E0809185010E94F40380918601882375
:1008D000F1F030E020E08091870190E0880F991FCF
:1008E0002817390708F043C0E0918A01F0918B0185
:1008F000E20FF31F80818EBD00000DB407FEFDCF17
:100900008EB52F5F3F4FE7CF80937C01D5CFD0E0EE
:10091000C0E08091870190E0880F991FC817D90720
:1009200030F5E0918A01F0918B01EC0FFD1FE08022
:10093000D0908401C090830107E010E0F12CB70152
:10094000002E02C0759567950A94E2F761708C2DB0
:100950000E94F40361E08D2D0E94F40360E08D2D70
:100960000E94F4030150110950F72196D2CF61E0A3
:10097000809185010E94F40380918601882371F0A3
:1009800080917D01882351F09FB7F89420917D01DB
:1009900080917C01213059F48DBB9FBFDF91CF91B5
:1009A0001F910F91FF90EF90DF90CF9008958FBF30
:1009B000F5CFEEE7F1E0418550E0440F551F70E0C0
:1009C00060E0848595850C94B40BEF92FF920F93B1
:1009D0001F93CF93DF93FF24F394D0E0C0E001E0B6
:1009E00010E0B9E0EB2E0E94D90498010C2E02C051
:1009F000220F331F0A94E2F7E0E090E08091870134
:100A0000E817E0F5EE9DB0011124A0918801B091A6
:100A10008901A60FB71F18964C9150E0422353232B
:100A2000452B51F14E2F50E08150990B841B950BB3
:100A3000880F991FA0918A01B0918B01A80FB91F4F
:100A4000FC92A0918801B0918901A60FB71FAC0F4D
:100A5000BD1F6C91809187018150990B841B950B70
:100A6000880F991F40918A0150918B01840F951F27
:100A7000DC0111966C9391E0EF5FC0CF91110E9461
:100A800040042196F394C830D10509F0ACCF80E042
:100A900099E020918701821758F4E0918801F09144
:100AA0008901899FE00DF11D112410868F5FF1CF20
:100AB000DF91CF911F910F91FF90EF900895FF92DA
:100AC0000F931F93CF93DF93EC018B01F09087017D
:100AD000FA940E94D90460E0702F872F9AE0C23008
:100AE000D10559F0A8F59BE0C130D10531F081E086
:100AF0000115110509F080E09CE0462F50E020919F
:100B000087012150330B241B350B220F331FE0913B
:100B10008A01F0918B01E20FF31F908320918701EE
:100B20002150330B241B350B220F331F40918A01B8
:100B300050918B01240F351FF90181836F5FF616E9
:100B400060F6DF91CF911F910F91FF900C944004BC
:100B5000C330D10559F0C430D10549F681E0011503
:100B6000110509F480E0819599E0C7CF81E0011576
:100B7000110509F480E09FE0C0CFDF92EF92FF9271
:100B80000F931F93CF93DF9399E0899F80011124E6
:100B9000F12CE12CC82FD0E0DD24D394DE0CE091C1
:100BA0008801F0918901E00FF11F808590E00E2C03
:100BB00002C0959587950A94E2F780FF2DC00E94A8
:100BC000D904809187018150990B8C1B9D0B880F54
:100BD000991F20918A0130918B01820F931FFC0194
:100BE000D082E0918801F0918901E00FF11FEE0DB4
:100BF000FF1D4081209187012150330B2C1B3D0BA1
:100C0000220F331F80918A0190918B01280F391F89
:100C1000F90141830E944004FFEFEF1AFF0A88E0C8
:100C2000E816F10409F0B8CF80918801909189010C
:100C3000080F191FF8011086DF91CF911F910F91B6
:100C4000FF90EF90DF9008958F929F92AF92BF92A6
:100C5000CF92DF92EF92FF920F931F93CF93DF9388
:100C6000C82F162F842F90918001209187019923FE
:100C700009F485C090E0C21708F066C099E0C99FEA
:100C8000B0011124C12CD12C7601C3944601570127
:100C9000012E04C0880C991CAA1CBB1C0A94D2F714
:100CA000D82D482D409527E030E0211B3109460121
:100CB000570104C0880C991CAA1CBB1C2A95D2F7AA
:100CC0008401B82C009530E020E090E057E0E52E5C
:100CD000F12CD901E0918801F0918901E60FF71F0D
:100CE00050918201109181016C01022E02C0D594B5
:100CF000C7940A94E2F7C0FE35C0552319F0D70116
:100D0000A21BB30BEA0FFB1F5081AD2F1111AB2DAE
:100D10005A2B50832F5F3F4F28303105D1F68091F9
:100D2000880190918901680F791F8FEFFB018087FF
:100D300080919001882339F080918701C81718F4B9
:100D40008C2F0E94BD0591E0892FDF91CF911F91DB
:100D50000F91FF90EF90DF90CF90BF90AF909F905A
:100D60008F900895552319F0D701A21BB30BEA0FFA
:100D7000FB1F5081A42F1111A02F5A23CACFC217D5
:100D800018F79091810191110E941D03F9E0CF9F06
:100D9000A0011124A0918801B0918901A40FB51F71
:100DA000612F70E09091820127E030E0261B370B25
:100DB000911101C09B01A20FB31F8C93E091880198
:100DC000F0918901E40FF51F20858091820188232D
:100DD00089F047E050E0461B570B81E090E0A0E02F
:100DE000B0E004C0880F991FAA1FBB1F4A95D2F715
:100DF000822B9DCF81E090E0A0E0B0E004C0880F9E
:100E0000991FAA1FBB1F1A95D2F7F2CF0F931F93FA
:100E1000CF93DF9390912201913009F478C030F0A4
:100E2000923009F48AC0109222016AC0A091000198
:100E3000B09101019D012F5F3F4F3093010120933D
:100E40000001CC910C2E000CDD0B40919B015091C8
:100E50009C0170E060E00091970110919801C0172B
:100E6000D107A8F12091990130919A012C173D07E3
:100E700070F12091920130919301F901E40FF51F77
:100E80000C171D0760F4E4914E0F511D611D711D7B
:100E90004F5F5F4F6F4F7F4F0F5F1F4FEECF9491AC
:100EA000993098F198E04F5F5F4F6F4F7F4FCAE1E5
:100EB000D1E010E04A515140191789F0FA01EC0FC6
:100EC000FD1FE20FF31FE491E9931F5FF5CFEAE105
:100ED000F1E098E0EF0119929A95E9F790E090938C
:100EE00019011092180191E09093220111969C91A2
:100EF000903231F429E231E0309301012093000176
:100F0000DF91CF911F910F9108959491CCCFE091F3
:100F1000180121E02E0F20931801F0E0E65EFE4F4D
:100F20008081309119012313EBCF90931901109216
:100F3000180192E090932201E3CF809118018F5F16
:100F40008093180190911901891302C01092220117
:100F500080E0D6CF1F920F920FB60F9211242F93DD
:100F60003F938F939F93AF93BF9380917401909120
:100F70007501A0917601B09177013091270123E0AE
:100F8000230F2D3758F50196A11DB11D2093270180
:100F90008093740190937501A0937601B0937701CB
:100FA0008091230190912401A0912501B091260107
:100FB0000196A11DB11D8093230190932401A0935C
:100FC0002501B0932601BF91AF919F918F913F91E1
:100FD0002F910F900FBE0F901F90189526E8230FAA
:100FE0000296A11DB11DD2CF789484B5826084BDD4
:100FF00084B5816084BD85B5826085BD85B581601D
:1010000085BD80916E00816080936E00109281009A
:101010008091810082608093810080918100816055
:101020008093810080918000816080938000809116
:10103000B10084608093B1008091B00081608093A2
:10104000B00080917A00846080937A0080917A0069
:10105000826080937A0080917A00816080937A0028
:1010600080917A00806880937A001092C10080910C
:101070008601882309F4D6C0CFB7F894809128015F
:10108000811124C0E4ECF5E08491E8EDF5E0949161
:10109000E82FF0E0EE0FFF1FE055FA4FA591B49155
:1010A000EC91E92321F461E08AE00E94F4038AE0F4
:1010B0000E94D5038CB580618CBD8CB580648CBDDD
:1010C0008DE00E94D5038BE00E94D503809128011A
:1010D0008F5F80932801CFBF809185010E94D50347
:1010E00061E0809185010E94F40310928D011092BD
:1010F0008C0110928F0110928E01C091870129E01E
:10110000C29FC00111240E948F0A9093890180938D
:1011100088018C2F90E0880F991F0E948F0A90936E
:101120008B0180938A0180919201909193018C5759
:10113000904009F49AC0ECE7F0E0F0939301E0935B
:1011400092011092940188E0809395011092980189
:10115000109297018FEF90E090939A0180939901FC
:1011600010929C0110929B01E491E63409F033C087
:10117000EDE7F0E0E491E13009F45DC082E090E059
:10118000E23029F5EEE7F0E08491EFE7F0E0E4915A
:1011900090E0982F88278E0F911D9093980180934F
:1011A0009701E0E8F0E08491E1E8F0E0E49190E07C
:1011B000982F88278E0F911D90939A018093990103
:1011C000E2E8F0E0E491E093950187E090E090930D
:1011D0009C0180939B01C0909B01D0909C01F12CBD
:1011E000E12C209197013091980140919901509103
:1011F0009A0160E04217530708F435C0F601E4583D
:10120000FF4F8491681708F4682F90E0B0E0A0E0E9
:101210000196A11DB11DC80ED91EEA1EFB1E2F5F2F
:101220003F4FE8CF809183010E94D50380918401D4
:101230000E94D50351CFEEE7F0E0E491F0E0F093A7
:101240009801E0939701EFE7F0E0E491F0E0F0938C
:101250009A01E0939901E0E8F0E0E491E0939501D0
:1012600085E090E0B4CF6093960170E060E083E0A9
:1012700090E00E945F0567E070E081E090E00E94EE
:101280005F0567E070E082E090E00E945F0570E03B
:1012900060E084E090E00E945F05909187019150AA
:1012A00080E069E058E04FEF869F90011124A09103
:1012B0008801B0918901A20FB31FFD01752F119212
:1012C0007A95E9F7E0918801F0918901E20FF31F27
:1012D00040878F5F981740F78091900181110E949D
:1012E000E50470E060E090E080E00E945F0586E049
:1012F00097E090938D0180938C0164E070E082E030
:1013000090E00E945F0568E071E089E291E00E9450
:10131000BB0B79E0D72ECC24CA94E0E0EE2EE0E0BF
:10132000FE2E2FB7F8948091740190917501A091D1
:101330007601B09177012FBF4091780150917901EA
:1013400060917A0170917B01841B950BA60BB70B02
:10135000803D9740A105B10508F474C0C091870194
:10136000C1500091900110929001809191018823C9
:1013700009F46FC060E080E00E943503182FD0E0D0
:10138000DD9D9001112480918001882309F478C0AB
:1013900050E040E0E0918801F0918901E20FF31FF5
:1013A000E40FF51F808190918101992309F464C0B5
:1013B000880F80834F5F5F4F4830510559F7809108
:1013C000880190918901280F391FF901C086BB243B
:1013D000B394BD0E60E08B2D0E943503482F67E06B
:1013E0008D2F0E942406DB2DCB1550F6E0918C0149
:1013F000F0918D01309749F080919101811105C0E4
:1014000061E070E08C2F0995182F412F67E08C2F39
:101410000E9424060093900101110E94E5042FB759
:10142000F8948091740190917501A0917601B0912A
:1014300077012FBF8093780190937901A0937A016F
:10144000B0937B01E114F10409F46BCF0E9400001A
:1014500068CFA0908E01B0908F01A114B10451F01B
:1014600060E080E00E943503482F61E070E080E09A
:10147000F501099510E083CF90E09595879599CF78
:1014800081E090E0E0918801F0918901E20FF31F83
:10149000E80FF91F4081319740830196883091050C
:1014A00089F78DCFEEE7F1E086E0858385E08683DE
:1014B00084E08783108681E08187828B84E090E0DE
:1014C0009183808313821482128208958091860111
:1014D000882399F09FB7F89480912801882319F008
:1014E00081508093280180912801811105C08CB51D
:1014F0008F7B8CBD10927D019FBF80918801909160
:1015000089010E942B0B80918A0190918B010C9490
:101510002B0BEE0FFF1F0590F491E02D09940F9314
:101520001F93CF93DF938230910510F482E090E017
:10153000E0919F01F091A00130E020E0B0E0A0E058
:10154000309799F42115310509F44AC0281B390B4D
:1015500024303105D8F58A819B816115710589F1A7
:10156000FB0193838283FE0111C04081518102817E
:10157000138148175907E0F04817590799F4109755
:1015800061F012960C93129713961C933296CF012A
:10159000DF91CF911F910F91089500939F011093B8
:1015A000A001F4CF2115310551F04217530738F04F
:1015B000A901DB019A01BD01DF01F801C1CFEF01F3
:1015C000F9CF9093A00180939F01CDCFFE01E20F50
:1015D000F31F819391932250310939832883D7CF08
:1015E00020919D0130919E01232B41F42091040113
:1015F0003091050130939E0120939D0120910201BD
:10160000309103012115310541F42DB73EB74091CA
:10161000060150910701241B350BE0919D01F091CB
:101620009E01E217F307A0F42E1B3F0B2817390782
:1016300078F0AC014E5F5F4F2417350748F04E0F2E
:101640005F1F50939E0140939D01819391939FCF83
:10165000F0E0E0E09CCFCF93DF930097E9F0FC014E
:10166000329713821282A0919F01B091A001ED01E7
:1016700030E020E01097A1F420813181820F931F88
:1016800020919D0130919E012817390709F061C012
:10169000F0939E01E0939D01DF91CF910895EA01BF
:1016A000CE17DF07E8F54A815B819E0141155105A0
:1016B000B1F7E901FB83EA8349915991C40FD51F22
:1016C000EC17FD0761F4808191810296840F951FCC
:1016D000E90199838883828193819B838A83F0E0E7
:1016E000E0E012968D919C9113970097B9F52D919A
:1016F0003C911197CD010296820F931F20919D017D
:1017000030919E012817390739F6309751F510921C
:10171000A00110929F01B0939E01A0939D01BCCFA8
:10172000D383C28340815181840F951FC817D90785
:1017300061F44E5F5F4F88819981480F591F518333
:1017400040838A819B81938382832115310509F02F
:10175000B0CFF093A001E0939F019ECFFD01DC018B
:10176000C0CF13821282D7CFDC0101C06D934150EC
:101770005040E0F70895FB01DC0101900D9200203C
:10178000E1F7089512E0C2EFD2E004C0FE010E942A
:0E179000890A2196C33FD107C9F7F894FFCF0D
:10179E0029010000A10180002041726475696E6FFD
:0817AE00206520436961200061
:00000001FF
