:100000000C945D000C9485000C9485000C94850084
:100010000C9485000C9485000C9485000C9485004C
:100020000C9485000C9485000C9485000C9485003C
:100030000C9485000C9485000C9485000C9485002C
:100040000C94A4020C9485000C9472020C944C0243
:100050000C9485000C9485000C9485000C9485000C
:100060000C9485000C94850000000008000201003B
:100070000003040700000000000000000000000072
:10008000250028002B0000000000240027002A0083
:10009000040404040404040402020202020203032E
:1000A0000303030301020408102040800102040836
:1000B0001020010204081020EE0211241FBECFEF11
:1000C000D8E0DEBFCDBF11E0A0E0B1E0EEE2F8E0A5
:1000D00002C005900D92AE31B107D9F721E0AEE133
:1000E000B1E001C01D92A83CB207E1F710E0CDE5F8
:1000F000D0E004C02197FE010E940F04CC35D10747
:10010000C9F70E9421030C9415040C94000090E0A0
:10011000FC01EC55FF4F249180579F4FFC018491C7
:10012000882399F090E0880F991FFC01EA57FF4F50
:10013000A591B491FC01E458FF4F859194918FB73C
:10014000F894EC91E22BEC938FBF0895AF92BF929D
:10015000CF92DF92EF92FF920F931F93CF93DF9393
:100160006C017B018B01040F151FEB015E01AE18C2
:10017000BF08C017D10759F06991D601ED91FC91E4
:100180000190F081E02DC6010995892B79F7C50111
:10019000DF91CF911F910F91FF90EF90DF90CF9063
:1001A000BF90AF900895FC01538D448D252F30E012
:1001B000842F90E0821B930B541710F0CF96089574
:1001C00001970895FC01918D828D981761F0A28DA1
:1001D000AE0FBF2FB11D5D968C91928D9F5F9F7367
:1001E000928F90E008958FEF9FEF0895FC01918D1D
:1001F000828D981731F0828DE80FF11D858D90E08A
:1002000008958FEF9FEF0895FC01918D228D892F26
:1002100090E0805C9F4F821B91098F73992708950E
:1002200089E291E00E94040121E0892B09F420E099
:10023000822F089580E090E0892B29F00E94100120
:1002400081110C9400000895FC01A48DA80FB92F12
:10025000B11DA35ABF4F2C91848D90E001968F73EE
:100260009927848FA689B7892C93A089B1898C910D
:10027000837080648C93938D848D981306C002885C
:10028000F389E02D80818F7D80830895EF92FF9226
:100290000F931F93CF93DF93EC0181E0888F9B8DA9
:1002A0008C8D98131AC0E889F989808185FF15C063
:1002B0009FB7F894EE89FF896083E889F989808186
:1002C0008370806480839FBF81E090E0DF91CF9155
:1002D0001F910F91FF90EF900895F62E0B8D10E077
:1002E0000F5F1F4F0F731127E02E8C8D8E110CC0E6
:1002F0000FB607FCFACFE889F989808185FFF5CF31
:10030000CE010E942401F1CFEB8DEC0FFD2FF11DEA
:10031000E35AFF4FF0829FB7F8940B8FEA89FB896D
:1003200080818062CFCFCF93DF93EC01888D8823CB
:10033000B9F0AA89BB89E889F9898C9185FD03C048
:10034000808186FD0DC00FB607FCF7CF8C9185FF2D
:10035000F2CF808185FFEDCFCE010E942401E9CF4D
:10036000DF91CF91089590E0FC01E859FF4F24916F
:10037000FC01EC55FF4F3491FC01E057FF4FE49135
:10038000EE23C9F0222339F0233001F1A8F4213003
:1003900019F1223029F1F0E0EE0FFF1FE458FF4F72
:1003A000A591B4918FB7F894EC91611126C0309566
:1003B0003E233C938FBF08952730A9F02830C9F021
:1003C000243049F7809180008F7D03C080918000A8
:1003D0008F7780938000DFCF84B58F7784BDDBCFAC
:1003E00084B58F7DFBCF8091B0008F778093B00074
:1003F000D2CF8091B0008F7DF9CF3E2BDACF3FB7BF
:10040000F8948091230190912401A0912501B0914D
:10041000260126B5A89B05C02F3F19F00196A11D06
:10042000B11D3FBFBA2FA92F982F8827BC01CD013E
:10043000620F711D811D911D42E0660F771F881F9D
:10044000991F4A95D1F70895EF92FF920F931F934A
:10045000CF93DF93E82EF62EC7E0D0E0042F10E014
:10046000B8010C2E02C0759567950A94E2F7617089
:100470008E2D0E94B30161E08F2D0E94B30160E0D8
:100480008F2D0E94B301219758F7DF91CF911F91D3
:100490000F91FF90EF9008951F920F920FB60F9259
:1004A00011242F933F934F935F936F937F938F9379
:1004B0009F93AF93BF93EF93FF9389E291E00E94E4
:1004C0002401FF91EF91BF91AF919F918F917F9107
:1004D0006F915F914F913F912F910F900FBE0F90B1
:1004E0001F9018951F920F920FB60F9211242F9301
:1004F0008F939F93EF93FF93E0913901F0913A012D
:100500008081E0913F01F091400182FD1BC090810C
:10051000809142018F5F8F7320914301821741F0D8
:10052000E0914201F0E0E75DFE4F958F809342013C
:10053000FF91EF919F918F912F910F900FBE0F9090
:100540001F9018958081F4CF1F920F920FB60F92D3
:1005500011242F933F938F939F93AF93BF938091D9
:100560001F0190912001A0912101B09122013091B1
:100570001E0123E0230F2D3758F50196A11DB11D53
:1005800020931E0180931F0190932001A0932101CD
:10059000B09322018091230190912401A091250123
:1005A000B09126010196A11DB11D80932301909366
:1005B0002401A0932501B0932601BF91AF919F9193
:1005C0008F913F912F910F900FBE0F901F90189514
:1005D00026E8230F0296A11DB11DD2CFE9E2F1E07A
:1005E0001382128288EE93E0A0E0B0E084839583CA
:1005F000A683B78384E091E09183808385EC90E0CB
:100600009587848784EC90E09787868780EC90E0DC
:10061000918B808B81EC90E0938B828B82EC90E0CD
:10062000958B848B86EC90E0978B868B118E128E47
:10063000138E148E86E090E09093C7018093C601DC
:100640000895789484B5826084BD84B5816084BD4A
:1006500085B5826085BD85B5816085BD80916E0060
:10066000816080936E001092810080918100826091
:1006700080938100809181008160809381008091CE
:1006800080008160809380008091B10084608093BD
:10069000B1008091B00081608093B00080917A00B9
:1006A000846080937A0080917A00826080937A00DF
:1006B00080917A00816080937A0080917A008068CE
:1006C00080937A001092C100E0913901F0913A01D3
:1006D00082E08083E0913501F09136011082E09153
:1006E0003701F09138018FEC808310924101E09145
:1006F0003D01F0913E0186E08083E0913B01F09165
:100700003C01808180618083E0913B01F0913C015C
:10071000808188608083E0913B01F0913C01808181
:1007200080688083E0913B01F0913C0180818F7D66
:1007300080838AE00E9487008CE00E9487008BE023
:100740000E94870085E00E94870087E00E94870062
:1007500086E00E948700C0E0D0E047E050E062E120
:1007600071E089E291E00E94A60042E050E06AE177
:1007700071E089E291E00E94A60060E085E00E94BD
:10078000B30160E08AE00E94B30140E067E086E0E8
:100790000E94240240E86CE08BE00E94240261E0A9
:1007A00085E00E94B30161E08AE00E94B30180917C
:1007B00027019091280101969093280180932701A9
:1007C0000E94FF014B015C018EE1C82ED12CE12C6F
:1007D000F12C0E94FF01681979098A099B09683E7A
:1007E000734081059105A8F321E0C21AD108E10800
:1007F000F10888EE880E83E0981EA11CB11CC1147C
:10080000D104E104F10429F7209709F4A6CF0E944E
:100810001001882309F4A1CF0E9400009ECFEE0FA3
:0E082000FF1F0590F491E02D0994F894FFCF8E
:10082E00000000004601A600D30093010401E2007F
:0E083E00F600416D6E65736961000D0A0000E1
:00000001FF
