:100000000C945D000C9485000C9485000C94850084
:100010000C9485000C9485000C9485000C9485004C
:100020000C9485000C945F030C9485000C9485005F
:100030000C9485000C9485000C9485000C9485002C
:100040000C9415030C9485000C94E3020C94BD02EF
:100050000C9485000C9485000C9485000C9485000C
:100060000C9485000C94850000000008000201003B
:100070000003040700000000000000000000000072
:10008000250028002B0000000000240027002A0083
:10009000040404040404040402020202020203032E
:1000A0000303030301020408102040800102040836
:1000B0001020010204081020100411241FBECFEFED
:1000C000D8E0DEBFCDBF11E0A0E0B1E0E8E8FCE0A1
:1000D00002C005900D92A831B107D9F721E0A8E13F
:1000E000B1E001C01D92AC3CB207E1F710E0CDE5F4
:1000F000D0E004C02197FE010E94F404CC35D10762
:10010000C9F70E9471040C9442060C940000FC0193
:10011000538D448D252F30E0842F90E0821B930B6C
:10012000541710F0CF96089501970895FC01918D12
:10013000828D981761F0A28DAE0FBF2FB11D5D9615
:100140008C91928D9F5F9F73928F90E008958FEFB7
:100150009FEF0895FC01918D828D981731F0828D6B
:10016000E80FF11D858D90E008958FEF9FEF0895C2
:10017000FC01918D228D892F90E0805C9F4F821B26
:1001800091098F7399270895FC01A48DA80FB92FA9
:10019000B11DA35ABF4F2C91848D90E001968F73AF
:1001A0009927848FA689B7892C93A089B1898C91CE
:1001B000837080648C93938D848D981306C002881D
:1001C000F389E02D80818F7D80830895EF92FF92E7
:1001D0000F931F93CF93DF93EC0181E0888F9B8D6A
:1001E0008C8D98131AC0E889F989808185FF15C024
:1001F0009FB7F894EE89FF896083E889F989808147
:100200008370806480839FBF81E090E0DF91CF9115
:100210001F910F91FF90EF900895F62E0B8D10E037
:100220000F5F1F4F0F731127E02E8C8D8E110CC0A6
:100230000FB607FCFACFE889F989808185FFF5CFF1
:10024000CE010E94C400F1CFEB8DEC0FFD2FF11D0C
:10025000E35AFF4FF0829FB7F8940B8FEA89FB892E
:1002600080818062CFCFCF93DF93EC01888D88238C
:10027000B9F0AA89BB89E889F9898C9185FD03C009
:10028000808186FD0DC00FB607FCF7CF8C9185FFEE
:10029000F2CF808185FFEDCFCE010E94C400E9CF6F
:1002A000DF91CF91089581E291E00E94B80021E0B2
:1002B000892B09F420E0822F089580E090E0892BBB
:1002C00029F00E94530181110C9400000895AF920F
:1002D000BF92CF92DF92EF92FF920F931F93CF9333
:1002E000DF936C017B018B01040F151FEB015E0195
:1002F000AE18BF08C017D10759F06991D601ED912A
:10030000FC910190F081E02DC6010995892B79F7C8
:10031000C501DF91CF911F910F91FF90EF90DF907A
:10032000CF90BF90AF90089590E0FC01E859FF4F47
:100330002491FC01EC55FF4F3491FC01E057FF4F35
:10034000E491EE23C9F0222339F0233001F1A8F41F
:10035000213019F1223029F1F0E0EE0FFF1FE458AF
:10036000FF4FA591B4918FB7F894EC91611126C01D
:1003700030953E233C938FBF08952730A9F0283055
:10038000C9F0243049F7809180008F7D03C08091AF
:1003900080008F7780938000DFCF84B58F7784BD16
:1003A000DBCF84B58F7DFBCF8091B0008F778093BA
:1003B000B000D2CF8091B0008F7DF9CF3E2BDACF45
:1003C0003FB7F89480911D0190911E01A0911F01EB
:1003D000B091200126B5A89B05C02F3F19F00196CA
:1003E000A11DB11D3FBFBA2FA92F982F8827BC018F
:1003F000CD01620F711D811D911D42E0660F771FB7
:10040000881F991F4A95D1F708958F929F92AF92B6
:10041000BF92CF92DF92EF92FF920F931F93CF93F1
:10042000DF935C01C091BE01D091BF017E0181E0EC
:10043000E81AF108CA0DDB1DF7FC22C0CA909090A3
:10044000C0018090C20107E010E0D12CB601002E5F
:1004500002C0759567950A94E2F76170882D0E9435
:10046000940161E0892D0E94940160E0892D0E9431
:1004700094010150110950F781E0E81AF108DCCF2E
:10048000B092C701A092C60161E08091C4010E94B0
:10049000940160E08091C401DF91CF911F910F9191
:1004A000FF90EF90DF90CF90BF90AF909F908F9094
:1004B0000C9494018F929F92AF92BF92EF92FF9211
:1004C0000F931F93CF93DF937C018A01DC011A966F
:1004D0002D913C911B97629FC001639F900D729F6D
:1004E000900D11241496CD91DC91C80FD91FFA01FB
:1004F00084809580A680B78040E052E16AE770E092
:1005000080E084169506A606B70640F476956795B2
:10051000579547958F5F8630A1F787E0982F906AAF
:100520009695809581709CBD8DBD60E0D801129636
:100530008C910E949401FE01D7011A962D913C9155
:10054000CF018C1B9D0B8217930740F481918EBDC8
:1005500000000DB407FEFDCF8EB5EECF61E0F801CF
:100560008281DF91CF911F910F91FF90EF90BF900B
:10057000AF909F908F900C9494011F920F920FB6A2
:100580000F9211242F933F934F935F936F937F9319
:100590008F939F93AF93BF93EF93FF9381E291E08B
:1005A0000E94C400FF91EF91BF91AF919F918F91F5
:1005B0007F916F915F914F913F912F910F900FBE5F
:1005C0000F901F9018951F920F920FB60F92112443
:1005D0002F938F939F93EF93FF93E0913101F091CD
:1005E00032018081E0913701F091380182FD1BC01A
:1005F000908180913A018F5F8F7320913B01821728
:1006000041F0E0913A01F0E0EF5DFE4F958F80936D
:100610003A01FF91EF919F918F912F910F900FBE13
:100620000F901F9018958081F4CF1F920F920FB6F4
:100630000F9211242F933F938F939F93AF93BF9368
:100640008091190190911A01A0911B01B0911C0198
:100650003091180123E0230F2D3758F50196A11D85
:10066000B11D209318018093190190931A01A09352
:100670001B01B0931C0180911D0190911E01A0915E
:100680001F01B09120010196A11DB11D80931D0194
:1006900090931E01A0931F01B0932001BF91AF91D1
:1006A0009F918F913F912F910F900FBE0F901F90B0
:1006B000189526E8230F0296A11DB11DD2CF1F92D7
:1006C0000F920FB60F9211242F933F934F935F9386
:1006D0006F937F938F939F93AF93BF93EF93FF930A
:1006E000F8948AB16DB17EB18823E9F041E350E01E
:1006F00087B198B10E945A021AB880911B0080936A
:10070000B2007894FF91EF91BF91AF919F918F913B
:100710007F916F915F914F913F912F910F900FBEFD
:100720000F901F9018958BB19CB181509048880F05
:10073000991F23B134B1820F931F41E350E0FC01B4
:10074000808191810E945A026BB17CB1E0910000DE
:10075000F09101000684F785E02D90E080E0099596
:100760006BB17CB1E0910000F09101000684F78547
:10077000E02D90E080E0099548E1489F9001499F75
:10078000300D112481E091E0821B930B8093B20025
:1007900078948DB19EB101969EB98DB920910F00CC
:1007A000309110008217930790F01EB81DB88BB1DE
:1007B0009CB101969CB98BB920911700309118001B
:1007C0002817390720F481E090E09CB98BB980911B
:1007D000190090911A00892B09F494CF81E08AB90D
:1007E00091CF90E0FC01EC55FF4F249180579F4F33
:1007F000FC018491882399F090E0880F991FFC01F7
:10080000EA57FF4FA591B491FC01E458FF4F859141
:1008100094918FB7F894EC91E22BEC938FBF0895ED
:10082000CF93DF93E1E2F1E01382128288EE93E04E
:10083000A0E0B0E084839583A683B7838AE091E04B
:100840009183808385EC90E09587848784EC90E0A9
:100850009787868780EC90E0918B808B81EC90E08D
:10086000938B828B82EC90E0958B848B86EC90E06E
:10087000978B868B118E128E138E148ECEEBD1E059
:1008800084E090E0998388838BE090E09B838A8367
:100890008AE090E09D838C838CE090E09F838E8340
:1008A0008BE00E94F1038AE00E94F1038CE00E9439
:1008B000F10360E08BE00E94940160E08AE00E9416
:1008C000940160E08CE00E94940161E070E084E0BB
:1008D00090E00E94FA0499878887DF91CF910C9469
:1008E0000502CF93DF9300D0CDB7DEB7789484B5FF
:1008F000826084BD84B5816084BD85B5826085BD1C
:1009000085B5816085BD80916E00816080936E00A9
:10091000109281008091810082608093810080919B
:10092000810081608093810080918000816080934C
:1009300080008091B10084608093B1008091B0000C
:1009400081608093B00080917A00846080937A0007
:1009500080917A00826080937A0080917A00816031
:1009600080937A0080917A00806880937A00109258
:10097000C10098E1792E2AEA622E00E010E0798227
:100980006A82CE0101960E9405020E94E0014B019D
:100990005C0180EDC82E87E0D82EE12CF12C0E945E
:1009A000E001681979098A099B09683E734081054D
:1009B0009105A8F321E0C21AD108E108F10888EEF8
:1009C000880E83E0981EA11CB11CC114D104E1045F
:1009D000F10429F70115110591F20E9453018823B2
:1009E00071F20E940000CBCFEE0FFF1F0590F49133
:1009F000E02D09940F931F93CF93DF93869F80017F
:100A0000879F100D969F100D1124C8010E94160596
:100A1000EC01009729F0A80170E060E00E943B061D
:100A2000CE01DF91CF911F910F9108950F931F93E6
:100A3000CF93DF938230910510F482E090E0E09153
:100A4000CA01F091CB0130E020E0B0E0A0E03097A7
:100A500099F42115310509F44AC0281B390B2430BB
:100A60003105D8F58A819B816115710589F1FB01FA
:100A700093838283FE0111C04081518102811381E1
:100A800048175907E0F04817590799F4109761F093
:100A900012960C93129713961C933296CF01DF9106
:100AA000CF911F910F9108950093CA011093CB012C
:100AB000F4CF2115310551F04217530738F0A90141
:100AC000DB019A01BD01DF01F801C1CFEF01F9CFD0
:100AD0009093CB018093CA01CDCFFE01E20FF31FAB
:100AE000819391932250310939832883D7CF209164
:100AF000C8013091C901232B41F4209102013091AA
:100B000003013093C9012093C80120910001309165
:100B100001012115310541F42DB73EB74091040183
:100B200050910501241B350BE091C801F091C901DA
:100B3000E217F307A0F42E1B3F0B2817390778F0B4
:100B4000AC014E5F5F4F2417350748F04E0F5F1F13
:100B50005093C9014093C801819391939FCFF0E0D6
:100B6000E0E09CCFCF93DF930097E9F0FC01329750
:100B700013821282A091CA01B091CB01ED0130E045
:100B800020E01097A1F420813181820F931F2091E2
:100B9000C8013091C9012817390709F061C0F093E5
:100BA000C901E093C801DF91CF910895EA01CE1702
:100BB000DF07E8F54A815B819E0141155105B1F7D8
:100BC000E901FB83EA8349915991C40FD51FEC17C2
:100BD000FD0761F4808191810296840F951FE901E0
:100BE00099838883828193819B838A83F0E0E0E00C
:100BF00012968D919C9113970097B9F52D913C9188
:100C00001197CD010296820F931F2091C801309158
:100C1000C9012817390739F6309751F51092CB01E1
:100C20001092CA01B093C901A093C801BCCFD3836D
:100C3000C28340815181840F951FC817D90761F481
:100C40004E5F5F4F88819981480F591F51834083C0
:100C50008A819B81938382832115310509F0B0CF6E
:100C6000F093CB01E093CA019ECFFD01DC01C0CF20
:100C700013821282D7CFDC0101C06D9341505040E6
:080C8000E0F70895F894FFCF9E
:100C88000000CC01800000000000E600670187003A
:080C98003301B8009600AA0028
:00000001FF
