:100000000C945D000C9485000C9485000C94850084
:100010000C9485000C9485000C9485000C9485004C
:100020000C9485000C9485000C9485000C9485003C
:100030000C9485000C9485000C9485000C9485002C
:100040000C949E020C9485000C946C020C94460255
:100050000C9485000C9485000C9485000C9485000C
:100060000C9485000C94850000000008000201003B
:100070000003040700000000000000000000000072
:10008000250028002B0000000000240027002A0083
:10009000040404040404040402020202020203032E
:1000A0000303030301020408102040800102040836
:1000B0001020010204081020930411241FBECFEF6A
:1000C000D8E0DEBFCDBF11E0A0E0B1E0E0E9F9E0AB
:1000D00002C005900D92A239B107D9F722E0A2E93A
:1000E000B1E001C01D92A034B207E1F710E0CDE508
:1000F000D0E004C02197FE010E94C004CC35D10796
:10010000C9F70E94E8020C94C6040C94000090E029
:10011000FC01EC55FF4F249180579F4FFC018491C7
:10012000882399F090E0880F991FFC01EA57FF4F50
:10013000A591B491FC01E458FF4F859194918FB73C
:10014000F894EC91E22BEC938FBF0895FC01538D52
:10015000448D252F30E0842F90E0821B930B5417A1
:1001600010F0CF96089501970895FC01918D828D2E
:10017000981761F0A28DAE0FBF2FB11D5D968C91C7
:10018000928D9F5F9F73928F90E008958FEF9FEF06
:100190000895FC01918D828D981731F0828DE80FC2
:1001A000F11D858D90E008958FEF9FEF0895FC017C
:1001B000918D228D892F90E0805C9F4F821B910949
:1001C0008F7399270895FC01A48DA80FB92FB11D35
:1001D000A35ABF4F2C91848D90E001968F7399277D
:1001E000848FA689B7892C93A089B1898C9183705B
:1001F00080648C93938D848D981306C00288F38954
:10020000E02D80818F7D80830895EF92FF920F9380
:100210001F93CF93DF93EC0181E0888F9B8D8C8DB2
:1002200098131AC0E889F989808185FF15C09FB7A6
:10023000F894EE89FF896083E889F9898081837069
:10024000806480839FBF81E090E0DF91CF911F9118
:100250000F91FF90EF900895F62E0B8D10E00F5F39
:100260001F4F0F731127E02E8C8D8E110CC00FB60F
:1002700007FCFACFE889F989808185FFF5CFCE01A7
:100280000E94E300F1CFEB8DEC0FFD2FF11DE35A3F
:10029000FF4FF0829FB7F8940B8FEA89FB8980812A
:1002A0008062CFCFCF93DF93EC01888D8823B9F0A4
:1002B000AA89BB89E889F9898C9185FD03C0808171
:1002C00086FD0DC00FB607FCF7CF8C9185FFF2CFEE
:1002D000808185FFEDCFCE010E94E300E9CFDF9161
:1002E000CF91089583EA91E00E94D70021E0892B05
:1002F00009F420E0822F089580E090E0892B29F016
:100300000E94720181110C9400000895AF92BF9277
:10031000CF92DF92EF92FF920F931F93CF93DF93D1
:100320006C017B018B01040F151FEB015E01AE1800
:10033000BF08C017D10759F06991D601ED91FC9122
:100340000190F081E02DC6010995892B79F7C5014F
:10035000DF91CF911F910F91FF90EF90DF90CF90A1
:10036000BF90AF90089590E0FC01E859FF4F2491B1
:10037000FC01EC55FF4F3491FC01E057FF4FE49135
:10038000EE23C9F0222339F0233001F1A8F4213003
:1003900019F1223029F1F0E0EE0FFF1FE458FF4F72
:1003A000A591B4918FB7F894EC91611126C0309566
:1003B0003E233C938FBF08952730A9F02830C9F021
:1003C000243049F7809180008F7D03C080918000A8
:1003D0008F7780938000DFCF84B58F7784BDDBCFAC
:1003E00084B58F7DFBCF8091B0008F778093B00074
:1003F000D2CF8091B0008F7DF9CF3E2BDACFEF9234
:10040000FF920F931F93CF93DF93E82EF62ED0E049
:10041000C0E0042F10E0B8010C2E02C0759567955E
:100420000A94E2F761708E2D0E94B30161E08F2D76
:100430000E94B30160E08F2D0E94B3012196C83065
:10044000D10549F7DF91CF911F910F91FF90EF9068
:100450000895CF93DF93FC0101900020E9F73197D5
:10046000AF01481B590BBC0183EA91E00E94860151
:10047000EC0142E050E060E871E083EA91E00E9424
:1004800086018C0F9D1FDF91CF9108951F920F92CF
:100490000FB60F9211242F933F934F935F936F9357
:1004A0007F938F939F93AF93BF93EF93FF9383EAD1
:1004B00091E00E94E300FF91EF91BF91AF919F9176
:1004C0008F917F916F915F914F913F912F910F90FD
:1004D0000FBE0F901F9018951F920F920FB60F929C
:1004E00011242F938F939F93EF93FF93E091B30188
:1004F000F091B4018081E091B901F091BA0182FDDF
:100500001BC090818091BC018F5F8F732091BD01D2
:10051000821741F0E091BC01F0E0ED55FE4F958F60
:100520008093BC01FF91EF919F918F912F910F903C
:100530000FBE0F901F9018958081F4CF1F920F92DD
:100540000FB60F9211242F933F938F939F93AF93E6
:10055000BF938091970190919801A0919901B091DA
:100560009A013091960123E0230F2D3758F501961B
:10057000A11DB11D2093960180939701909398013E
:10058000A0939901B0939A01809192019091930167
:10059000A0919401B09195010196A11DB11D809388
:1005A000920190939301A0939401B0939501BF9110
:1005B000AF919F918F913F912F910F900FBE0F9010
:1005C0001F90189526E8230F0296A11DB11DD2CFCA
:1005D000789484B5826084BD84B5816084BD85B51E
:1005E000826085BD85B5816085BD80916E0081602A
:1005F00080936E00109281008091810082608093D0
:1006000081008091810081608093810080918000D1
:100610008160809380008091B10084608093B100FC
:100620008091B00081608093B00080917A008460F6
:1006300080937A0080917A00826080937A00809122
:100640007A00816080937A0080917A00806880933C
:100650007A001092C1008BE00E9487008CE00E941B
:1006600087008AE00E94870088E00E94870089E076
:100670000E94870087E00E94870085E00E94870033
:1006800086E00E94870084E00E94870090E0892E27
:1006900090E0992EAA24A394B12C2FB7F8948091BE
:1006A000970190919801A0919901B0919A012FBF63
:1006B00040919F015091A0016091A1017091A20110
:1006C0008C019D01041B150B260B370BB901A801EA
:1006D00077FF08C010929F011092A0011092A10113
:1006E0001092A20140919F015091A0016091A1013F
:1006F0007091A2018C019D01041B150B260B370B79
:10070000B901A8014C3B5240610571058CF1209163
:100710009D0130919E0180939F019093A001A09331
:10072000A101B093A2012130310509F099C01092C6
:100730009E0110929D01C0919B01D0919C0160E0AF
:1007400084E00E94B301FE01EE5EFE4F408166E050
:1007500085E00E94FF0161E084E00E94B3012196E0
:10076000C630D1050CF081C0D0939C01C0939B0191
:1007700080919D0190919E01C0E3D1E008E111E0DC
:10078000892B09F077C080E7C82E81E0D82E60E081
:100790008AE00E94B301F60141916F016CE08BE0A9
:1007A0000E94FF0161E08AE00E94B30160E08AE0FC
:1007B0000E94B301F60147816CE08BE00E94FF01CB
:1007C00061E08AE00E94B30160E08AE00E94B30128
:1007D00048856CE08BE00E94FF0161E08AE00E94A6
:1007E000B30160E08AE00E94B301488121966CE089
:1007F0008BE00E94FF0161E08AE00E94B30160E0AB
:1008000087E00E94B301F80141918F0169E088E01F
:100810000E94FF0161E087E00E94B30160E087E091
:100820000E94B3014FEF69E088E00E94FF0161E0A0
:1008300087E00E94B301F1E000321F0709F0A7CF63
:1008400083E891E00E9429028114910409F425CFE4
:100850000E947201882309F420CF0E9400001DCF5E
:10086000B0929E01A0929D0166CF10929C011092C1
:100870009B017ECF60E08AE00E94B301488D6CE06E
:100880008BE00E94FF0161E08AE00E94B30160E01A
:100890008AE00E94B30148896CE08BE00E94FF016E
:1008A00061E08AE00E94B30160E08AE00E94B30147
:1008B000F9904F2D6CE08BE00E94FF0161E08AE02F
:1008C0000E94B30160E08AE00E94B3014F2D6CE00A
:1008D0008BE00E94FF0161E08AE00E94B30160E0CA
:1008E00087E00E94B301F80141918F0169E088E03F
:1008F0000E94FF0161E087E00E94B30160E087E0B1
:100900000E94B3014FEF69E088E00E94FF0161E0BF
:1009100087E00E94B301F1E000321F0709F0AACF7F
:100920008AE891E08FCFE3EAF1E01382128288EE49
:1009300093E0A0E0B0E084839583A683B78384E04E
:1009400091E09183808385EC90E09587848784ECA7
:1009500090E09787868780EC90E0918B808B81EC8C
:1009600090E0938B828B82EC90E0958B848B86EC6D
:1009700090E0978B868B118E128E138E148E0895B5
:10098000EE0FFF1F0590F491E02D0994F894FFCF2E
:100990000000000005018601A6005201D700B50045
:1009A000C900040810204080FEFDFBF7EFDFBF7F89
:1009B000788404848484847810305090101010FC63
:1009C000F8040478808080FCF80404F8040404F837
:1009D0000000FF101010F00000009F919191F100B5
:1009E00000008F898989DF0000FF808080800000FF
:1009F0000000FF919191FF000000FF909090F000A7
:100A00007C8080808080807C0609060000000000D9
:100A10000D0A004D6F646F2030004D6F646F203100
:020A20000000D4
:00000001FF
