:100000000C94F3020C941B030C941B030C941B0321
:100010000C941B030C941B030C941B030C941B03E8
:100020000C941B030C941B030C941B030C941B03D8
:100030000C941B030C941B030C941B030C941B03C8
:100040000C9499230C941B030C9467230C94412368
:100050000C941B030C941B030C941B030C941B03A8
:100060000C941B030C941B03000000080002010009
:10007000000304070000000000000000460200002A
:1000800000FF0800053E5B4F5B3E053E6B4F6B3E3D
:10009000051C3E7C3E1C05183C7E3C18051C577D0B
:1000A000571C051C5E7F5E1C0400183C1805FFE70A
:1000B000C3E7FF040018241805FFE7DBE7FF05305E
:1000C000483A060E05262979292605407F050507A9
:1000D00005407F05253F055A3CE73C5A057F3E1CFD
:1000E0001C0805081C1C3E7F0514227F221405FFF6
:1000F000FFFFFFFF05F0F0F0F0F003FFFFFF05004A
:100100000000FFFF050F0F0F0F0F0508047E040806
:100110000510207E20100508082A1C0805081C2A46
:10012000080805AA005500AA05AA55AA55AA05302F
:10013000383E383005060E3E0E06020000015F0311
:1001400007000705147F147F1405444AFF4A32054F
:1001500063130864630536494936480107033E4185
:10016000410341413E05082A1C2A080508083E08AB
:10017000080260E0040808080802606005601008D2
:100180000403053E5149453E03427F4005714949FC
:100190004946054149494936050F0808087F054F7A
:1001A00049494931053E4949493005030101017F6B
:1001B00005364949493605064949493E026C6C02F3
:1001C0006CEC0308142204141414140322140805FC
:1001D0000159090906053E415D594E057E09090987
:1001E0007E057F49494936053E41414141057F41F0
:1001F00041413E057F49494941057F0909090105FA
:100200003E41414979057F0808087F03417F410548
:10021000304141413F057F08142241057F40404065
:1002200040057F020C027F057F0408107F053E41D8
:1002300041413E057F09090906053E4141617E05B0
:100240007F091929460546494949310501017F01C0
:1002500001053F4040403F051F2040201F053F4013
:1002600038403F056314081463050304780403054C
:100270006151494543037F41410503040810600370
:1002800041417F0504020102040480808080030153
:100290000204043844447C047F4444380438444411
:1002A00044043844447F043854545804047E0501FF
:1002B0000418A4A47C047F040478017D0384857C55
:1002C000047F102844017F057C04780478047C04B2
:1002D0000478043844443804FC24241804182424E2
:1002E000FC047C040408045854543403047F0404BC
:1002F0003C40407C041C20407C053C4030403C0499
:100300006C10106C041CA0A07C046454544C0408B1
:10031000364141017F0441413608040201020105D2
:100320007F4141417F053E5555554105384444388C
:1003300044057C2A2A3E14057E0202060605027E3A
:10034000027E02056355494163053844443C040577
:10035000407E201E200506027E0202086313086408
:1003600063006060052A2A2A2A2A03514A4403446A
:100370004A51050000FF010303E080FF05361236F5
:10038000243603020502021818021010053040FF3F
:100390000101041F01011E000000000901017F018D
:1003A0007F020C027F0000000000000100017D04BC
:1003B00018247E2404447E454105221C141C220579
:1003C000012A7C2A010177044E55553903020002A7
:1003D000077E81BDA5A5817E0326292F0508142A45
:1003E0001422040808081803080808077E81BD9530
:1003F000A9817E0501010101010302050203242EEA
:1004000024031915120315150A02020104F82040ED
:10041000780506097F017F021818040080A0C00338
:10042000121F10032629260522142A140808402F1B
:100430001008041E117C08402F10080462554C0956
:1004400015553F1008041E117C053048484D4005E5
:100450007815161478057814161578057A1514157C
:100460007A05781615167905781514157805781417
:10047000151478077E09097F494941059EA161212C
:1004800021057C54554644057C54564544057E550B
:10049000544546057C5554454403457E4403447EFB
:1004A0004503467D4603457C4505087F49413E0599
:1004B0007C0A11227D0538444546380538444645B6
:1004C00038053A4544453A053846454639053845E4
:1004D000444538052214081422057C625A463E051C
:1004E0003C4041423C053C4042413C053C4241428B
:1004F0003C053C4140413C0502047A0502043F12A0
:10050000120C057E49494E30043845467C04384477
:10051000467D043846457E043A45467D04384544C8
:100520007D04304A4D7A0720545438545458049C62
:10053000A262220438555658043854565904385685
:10054000555A043855545902017A027A0103027946
:10055000020302780204304B4B3C047A090A71040E
:1005600030494A300430484A3104304A4932043272
:10057000494A3104394444390508082A080804382E
:10058000544C3804384142780438404279043842A7
:10059000417A043A40407A0418A0A27904FC282841
:1005A00010041AA0A07A00000000250028002B00EB
:1005B00000000000240027002A00040404040404AE
:1005C0000404020202020202030303030303010202
:1005D00004081020408001020408102001020408D1
:1005E0001020E323D62611241FBECFEFD8E0DEBFB4
:1005F000CDBF11E0A0E0B1E0ECEEF2E502C0059065
:100600000D92A43CB107D9F723E0A4ECB1E001C0FE
:100610001D92AB3DB207E1F712E0C2EFD2E004C099
:100620002197FE010E942728C13FD107C9F70E94E8
:100630006B240C9469290C94000090E0FC01E253B7
:10064000FA4F249186549A4FFC018491882399F0A3
:1006500090E0880F991FFC01E055FA4FA591B491E5
:10066000FC01EA55FA4F859194918FB7F894EC917B
:10067000E22BEC938FBF0895829590E09C01359515
:100680002795359527952373880F991F880F991FF4
:100690008C7C282B30E0C901959587958575220FB4
:1006A000331F2A7A822B0895CF93DF93262F269526
:1006B000382F70E0680F791FFC018E2F831B821783
:1006C00050F4819161507109DB019C91EF012197F8
:1006D00098838C93F2CFDF91CF910895482FFC013E
:1006E0008E2F841B8617E0F4219130E0C901959587
:1006F00087958575220F331F2A7A822B90E09C0103
:1007000035952795359527952373880F991F880F61
:10071000991F8C7C822B8295DF0111978C93E0CFFF
:100720000895AF92BF92CF92DF92EF92FF920F9314
:100730001F93CF93DF936C017B018B01040F151F77
:10074000EB015E01AE18BF08C017D10759F06991DF
:10075000D601ED91FC910190F081E02DC601099543
:10076000892B79F7C501DF91CF911F910F91FF90F0
:10077000EF90DF90CF90BF90AF900895FC01538D24
:10078000448D252F30E0842F90E0821B930B54176B
:1007900010F0CF96089501970895FC01918D828DF8
:1007A000981761F0A28DAE0FBF2FB11D5D968C9191
:1007B000928D9F5F9F73928F90E008958FEF9FEFD0
:1007C0000895FC01918D828D981731F0828DE80F8C
:1007D000F11D858D90E008958FEF9FEF0895FC0146
:1007E000918D228D892F90E0805C9F4F821B910913
:1007F0008F73992708958DE092E00E94EF0321E026
:10080000892B09F420E0822F089580E090E0892B65
:1008100029F00E94FB0381110C9400000895FC0153
:10082000A48DA80FB92FB11DA35ABF4F2C91848D51
:1008300090E001968F739927848FA689B7892C93AE
:10084000A089B1898C91837080648C93938D848D01
:10085000981306C00288F389E02D80818F7D808304
:100860000895EF92FF920F931F93CF93DF93EC01C4
:1008700081E0888F9B8D8C8D98131AC0E889F98947
:10088000808185FF15C09FB7F894EE89FF8960834A
:10089000E889F98980818370806480839FBF81E0CB
:1008A00090E0DF91CF911F910F91FF90EF9008950D
:1008B000F62E0B8D10E00F5F1F4F0F731127E02EE8
:1008C0008C8D8E110CC00FB607FCFACFE889F98920
:1008D000808185FFF5CFCE010E940F04F1CFEB8D13
:1008E000EC0FFD2FF11DE35AFF4FF0829FB7F894F4
:1008F0000B8FEA89FB8980818062CFCFCF93DF9312
:10090000EC01888D8823B9F0AA89BB89E889F98927
:100910008C9185FD03C0808186FD0DC00FB607FC5C
:10092000F7CF8C9185FFF2CF808185FFEDCFCE018F
:100930000E940F04E9CFDF91CF91089590E0FC0170
:10094000E859FF4F2491FC01E253FA4F3491FC0126
:10095000E654FA4FE491EE23C9F0222339F0233014
:1009600001F1A8F4213019F1223029F1F0E0EE0F65
:10097000FF1FEA55FA4FA591B4918FB7F894EC9107
:10098000611126C030953E233C938FBF08952730D8
:10099000A9F02830C9F0243049F7809180008F7D7C
:1009A00003C0809180008F7780938000DFCF84B573
:1009B0008F7784BDDBCF84B58F7DFBCF8091B00076
:1009C0008F778093B000D2CF8091B0008F7DF9CF28
:1009D0003E2BDACFCF92DF92EF92FF921F93CF930D
:1009E000DF93DC0156961C92569788E057968C93BD
:1009F000579758961C9258975A961C921E92599740
:100A00008FEF90E05C969C938E935B975E961C9222
:100A10001E925D9754968D919C915597009709F47D
:100A200078C0FC012491263409F031C03196E4915C
:100A3000E13009F453C022E030E0E23021F5FC015E
:100A4000329624913196E49130E0322F22272E0FF6
:100A5000311D5A963C932E935997FC01349624915C
:100A60003196E49130E0322F22272E0F311D5C9613
:100A70003C932E935B97FC013696E4915796EC934A
:100A8000579727E030E05E963C932E935D975D96F6
:100A9000CD90DC905E97F12CE12C59962D913C91F4
:100AA0005A975B96CD91DC915C9710E0C217D30703
:100AB00070F1FC01EC0DFD1D4491141708F4142F86
:100AC00050E070E060E04F5F5F4F6F4F7F4FC40EAC
:100AD000D51EE61EF71E2F5F3F4FE8CFFC01329672
:100AE000E491F0E05A96FC93EE935997FC0133960B
:100AF000E491F0E05C96FC93EE935B97FC013496F6
:100B0000E4915796EC93579725E030E0BCCF589688
:100B10001C93DF91CF911F91FF90EF90DF90CF90CA
:100B20000895FC018185681738F52285338579E0C1
:100B3000679F200D311D1124848150E093819923FA
:100B400071F0882331F087E090E0FC01E41BF50BA5
:100B5000AF01240F351FF90180810C943C038823D9
:100B600031F087E090E0BC01641B750BAB01240FF2
:100B7000351FF9018081089580E008958F929F923A
:100B8000AF92BF92CF92DF92EF92FF92CF93DF931B
:100B9000FC01242F30E08381882309F447C087E0DB
:100BA00090E0821B930B91E001C0990F8A95EAF7C0
:100BB0008185681708F040C022853385A90189E046
:100BC000689F400D511D1124BA01E48130E020E0FE
:100BD00080E0A7E0B0E0C12CD12C7601C394F22FC5
:100BE000AD01421B530BE11101C0A901460F571F74
:100BF000EA014881492351F04601570104C0880C9D
:100C0000991CAA1CBB1CFA95D2F788292F5F3F4F6D
:100C10002830310521F7DF91CF91FF90EF90DF90E1
:100C2000CF90BF90AF909F908F90089591E001C0BA
:100C3000990F4A95EAF7BCCF80E0EDCFFC01228105
:100C400021110C94BE050C949105462F47706695B2
:100C5000669566950C941E06CF93DF9300D0CDB7B2
:100C6000DEB769831A82DC01ED91FC910084F18585
:100C7000E02DBE016F5F7F4F099581E090E00F90FE
:100C80000F90DF91CF910895089590E080E008954E
:100C9000FC01828D968DA4A5B5A591FD15C0882374
:100CA00081F0868997890597A9F481E022A533A56B
:100CB0002A173B0709F080E086A71197B5A7A4A7DC
:100CC0000895808D918DEFCF882379F0868997895B
:100CD000059759F7CD01019695A784A781E0119654
:100CE0009C91911180E086A70895808D918DF0CF21
:100CF000FC01848995898230910591F4218932899A
:100D000034A323A337A326A38230910561F427855A
:100D1000308931A720A7029749F08FEF85A3089566
:100D200027853089EDCF21893289F3CF81E0F6CF55
:100D3000AF92BF92CF92DF92EF92FF920F931F93E9
:100D4000CF93DF93EC0188858823A1F08091D001B7
:100D5000882361F08FB7F8949091D001913049F5D4
:100D60009DB39093CF019DB39DBB8FBF80E58CBD9C
:100D700081E08DBD60E08F810E949E04888588237C
:100D8000D9F030E020E0898590E0880F991F28177E
:100D9000390708F03FC0EC85FD85E20FF31F808125
:100DA0008EBD00000DB407FEFDCF8EB52F5F3F4F07
:100DB000EACF8093CF01DACF10E000E0898590E0A0
:100DC000880F991F0817190728F5EC85FD85E00F96
:100DD000F11FC080BE80AD8087E0E82EF12CD12CC1
:100DE000B6010E2C02C0759567950A94E2F7617002
:100DF0008A2D0E949E0461E08B2D0E949E0460E07B
:100E00008B2D0E949E0481E0E81AF10848F70F5FDD
:100E10001F4FD4CF61E08F810E949E048885882374
:100E200071F08091D001882351F09FB7F894209100
:100E3000D0018091CF01213069F48DBB9FBFDF913C
:100E4000CF911F910F91FF90EF90DF90CF90BF90C7
:100E5000AF9008958FBFF3CFFC01418550E0440F60
:100E6000551F70E060E0848595850C945B29BF92E6
:100E7000CF92DF92EF92FF920F931F93CF93DF9366
:100E8000FC012185621708F04EC0EC01F9E06F9F6C
:100E900070011124D12CC12C062F10E0BB24B39477
:100EA000BC0CEA85FB85EE0DFF1D808590E00C2CC7
:100EB00002C0959587950A94E2F780FF27C0CE017E
:100EC0000E942C0789858150990B801B910B880FFC
:100ED000991F2C853D85820F931FFC01B082EA8506
:100EE000FB85EE0DFF1DEC0DFD1D408189858150B8
:100EF000990B801B910B880F991F2C853D85820FC4
:100F0000931FFC014183CE010E949806FFEFCF1A88
:100F1000DF0A88E0C816D10409F68A859B85E80EA9
:100F2000F91EF7011086DF91CF911F910F91FF906D
:100F3000EF90DF90CF90BF9008950F931F93CF93C2
:100F4000DF93EC01162F042F822F9B8191110E94B9
:100F50003C0399E0199F90011124AA85BB85A20F3B
:100F6000B31F602F70E09C8147E050E0461B570B99
:100F7000911101C0AB01A40FB51F8C93EA85FB85CD
:100F8000E20FF31F20858C818823F1F047E050E0C9
:100F9000461B570B81E090E0A0E0B0E004C0880F52
:100FA000991FAA1FBB1F4A95D2F7822B80878A8977
:100FB000882321F0612FCE010E94370781E0DF9165
:100FC000CF911F910F91089581E090E0A0E0B0E0F3
:100FD00004C0880F991FAA1FBB1F0A95D2F7E5CF3F
:100FE0009F92AF92BF92CF92DF92EF92FF920F93B8
:100FF0001F93CF93DF93FC0189E0689FE0011124E8
:1010000081E090E0A0E0B0E06C017D01042E04C01E
:10101000CC0CDD1CEE1CFF1C0A94D2F7BC2C7C2DE2
:10102000709507E010E0041B110904C0880F991F98
:10103000AA1FBB1F0A95D2F7A82E382F309590E033
:1010400080E0022F10E027E0E22EF12CAC01A28517
:10105000B385AC0FBD1F248193806801082E02C0A8
:10106000D594C7940A94E2F7C0FE2AC0222319F04F
:10107000A701481B590BA40FB51F2C914B2D9110A4
:101080004A2D242B2C93019688309105F9F6828500
:101090009385C80FD91F8FEF88878289882319F01D
:1010A000CF010E94370781E0DF91CF911F910F910F
:1010B000FF90EF90DF90CF90BF90AF909F900895FA
:1010C000222319F0A701481B590BA40FB51F2C911F
:1010D000472F9110432F2423D5CFFC015281318516
:1010E000552321F0631730F40C94F007631710F4C4
:1010F0000C949D0780E00895242F462F477033E01D
:10110000769567953A95E1F70C946D08FC0152814C
:101110003185552331F0631750F4483041F00C9479
:101120009D07631720F4483011F00C94F00780E01D
:101130000895CF92DF92EF92FF920F931F93CF9378
:10114000DF93FC01722F82815185882309F45DC0F1
:10115000651708F0BEC0283009F4BBC009E0609FE5
:1011600070011124828593858E0D9F1D50E0A22F62
:10117000B0E024812223B9F127E030E0E901C41B6B
:10118000D50BAE012A1B3B0B480F591FEA014881C2
:10119000820F931FEC01488382859385E701C80F76
:1011A000D91F28858481882301F147E050E04A1B3C
:1011B0005B0B81E090E0A0E0B0E004C0880F991FD5
:1011C000AA1FBB1F4A95D2F7822B8887828981117B
:1011D00018C081E0DF91CF911F910F91FF90EF90A8
:1011E000DF90CF9008959D01CFCF81E090E0A0E007
:1011F000B0E004C0880F991FAA1FBB1F7A95D2F7D1
:10120000E3CFCF010E943707E4CFA42FB0E0938152
:10121000992309F44FC027E030E02A1B3B0B91E0F3
:1012200001C0990F2A95EAF76517A0F6783091F278
:10123000D9E06D9FA001112401E010E020E030E032
:1012400068017901072E04C0CC0CDD1CEE1CFF1CCC
:101250000A94D2F7DC2DCC2DC095A7E0B0E0A71BF7
:10126000B10904C0000F111F221F331FAA95D2F726
:10127000F02E009530E020E0A285B385A40FB51FC5
:10128000A20FB31F8C917381182F1923D9F07111FC
:1012900017C07D2F872B8C932F5F3F4F2830310550
:1012A00059F782859385480F591F8FEFDA011896F9
:1012B0008C938CCF91E001C0990F4A95EAF7B4CF97
:1012C0007F2DE8CF711103C07C2F8723E4CF702FCF
:1012D000FCCF80E07FCF8F929F92AF92BF92CF9250
:1012E000DF92FF920F931F93CF93DF93CDB7DEB7BB
:1012F00028970FB6F894DEBF0FBECDBF483051051A
:1013000008F0CBC1FA01F62E8C01E757F64F0C948A
:1013100027289109E209190A530A8E0AD30A170BE2
:10132000370B29E0629FA0011124DC0112968C91F9
:101330008823C9F130E020E0D8011A96ED91FC91A4
:101340001B97E40FF51FE20FF31F808113969C910A
:10135000992339F190E09595879580832F5F3F4FD2
:101360002830310549F7D8011A96ED91FC91B9E082
:10137000FB9EE00DF11D11248FEF808781E0289600
:101380000FB6F894DEBF0FBECDBFDF91CF911F9196
:101390000F91FF90DF90CF90BF90AF909F908F9074
:1013A0000895880FDACF87E090E0D8011A96ED9182
:1013B000FC91E40FF51FE80FF91F208121830197AD
:1013C000A0F7D1CFE9E06E9F90011124DC011296C5
:1013D0008C918823E1F050E040E0D8011A96ED911D
:1013E000FC911B97E20FF31FE40FF51F808113960A
:1013F0009C91992341F0880F80834F5F5F4F483065
:10140000510559F7B0CF90E095958795F5CF81E0DC
:1014100090E0D8011A96ED91FC91E20FF31FE80FCE
:10142000F91F40813197408301968830910589F7F3
:101430009ACFFC01D28083898823F9F040E0C8016B
:10144000DD20C1F00E9491058983DD20C1F020E0FC
:10145000DD24D394D20E4D2D6F2DC8010E94990822
:101460002D2D2730A9F7298147E06F2DC8010E9453
:10147000860879CF0E94BE05E7CF1982E6CFF9E052
:10148000FF9EA001112487E090E0D8011A96ED910B
:10149000FC91E40FF51FE80FF91F2081220F208334
:1014A000019798F7E0CFFC01D28083898823D9F097
:1014B00047E0C801DD20A1F00E9491058983DD206D
:1014C000A1F028E0DD24DA94D20E4D2D6F2DC80155
:1014D0000E9499082D2DD110F5CF298140E0C5CF6C
:1014E0000E94BE05EBCF1982EACFF9E0FF9EA00172
:1014F000112430E020E0D8011A96ED91FC91E40F20
:10150000F51FE20FF31F808190E09595879580830A
:101510002F5F3F4F2830310571F7DFCFB9E06B9F68
:1015200060011124FC0182818823C1F0912C812C5F
:10153000D8011A96AD90BC90AC0CBD1CA80CB91C7F
:10154000F50180810E943C03D5018C93BFEF8B1A7B
:101550009B0AE8E08E16910459F705CF30E020E0B1
:1015600047E050E0D8011A968D919C918C0D9D1DFD
:10157000FC01E20FF31FB080BA01621B730B860FF0
:10158000971FDC018C918083D8011A96ED91FC9114
:10159000EC0DFD1DE60FF71FB0822F5F3F4F24308B
:1015A000310501F7E0CEB9E06B9F40011124FC0149
:1015B0008281882329F130E020E047E050E0D80123
:1015C0001A968D919C91880D991DFC01E20FF31FD5
:1015D000D080BA01621B730B860F971FDC018C91C0
:1015E0008083D8011A96ED91FC91E80DF91DE60F64
:1015F000F71FD0822F5F3F4F2430310501F7B3CE64
:10160000B12CA12CF801C284D384C80CD91CCA0CFB
:10161000DB1CD6018C910E943C03F6018083FFEF16
:10162000AF1ABF0A28E0A216B10461F79CCECE0122
:1016300001965C014C0187E0D82E4D2D6F2DC8011D
:101640000E941E06D4018D934D01DA94BFEFDB1288
:10165000F4CFD12CF50121915F014D2D6F2DC801E3
:101660000E948608D394F8E0DF12F4CF7CCE29E004
:10167000629FA001112490E080E0D8011A96ED91BC
:10168000FC91E40FF51FE80FF91F208120952083BE
:1016900001968830910589F766CE80E070CECF92B2
:1016A000DF92EF92FF920F931F93CF93DF93EC01A2
:1016B000DD24D394F12CE12C01E010E0B9E0CB2E35
:1016C000CE010E942C0798010E2C02C0220F331F5E
:1016D0000A94E2F7E0E090E08985E81798F5EC9D40
:1016E000A0011124AA85BB85A40FB51F18966C9183
:1016F00070E062237323672B19F16E2F70E0815025
:10170000990B861B970B880F991FAC85BD85A80F79
:10171000B91FDC92AA85BB85A40FB51FAE0DBF1DF6
:10172000FC9189858150990B861B970B880F991F17
:101730004C855D85840F951FDC011196FC9391E02B
:10174000EF5FCACF992319F0CE010E949806BFEF30
:10175000EB1AFB0AD39488E0E816F10409F0B0CF45
:1017600080E099E02985821748F4EA85FB85899F06
:10177000E00DF11D112410868F5FF4CFDF91CF9122
:101780001F910F91FF90EF90DF90CF900895CF932E
:10179000DF93C9E078E05FEF4617B0F06C9F9001EF
:1017A0001124FC01A285B385A20FB31FFD01D72F21
:1017B0001192DA95E9F7DC011A96ED91FC91E20FAE
:1017C000F31F50876F5FE8CFFC012289222321F0AD
:1017D000DF91CF910C944F0BDF91CF9108956F92D1
:1017E0007F928F929F92AF92BF92CF92DF92EF92B1
:1017F000FF920F931F93CF93DF93CDB7DEB7299757
:101800000FB6F894DEBF0FBECDBF8C01E62EF42ECE
:101810005901461708F43DC1DC015296DC905297FD
:1018200052961C922830310508F033C1F901E55E6B
:10183000F34F0C9427286E0CEA0C400D400D230C3E
:10184000400D400D400D642F70E0AE2CB12C4B01CB
:101850008A189B0897FE03C0EFEF8E1A9E0A959494
:101860008794712C29E0C22E472D50E04815590568
:101870000CF0FCC0F80122853385FA01EA0DFB1D4E
:10188000CE9EC001CF9E900D1124820F931FFC01AC
:10189000DE0111966C2C01900D926A94E1F7FB0128
:1018A000E41BF50BCE9EA001CF9E500D1124F90133
:1018B000E40FF51FDC018C2D01900D928A95E1F764
:1018C000F801A285B385A40FB51FFE0131968C2DBA
:1018D00001900D928A95E1F77394C6CFDC0153967F
:1018E0008C91882341F1642F660F660F660F695F44
:1018F000C8010E942506C82EAE2CB12C8F2D0F2CAE
:10190000000C990B8A159B0564F150E040E06F2DA7
:10191000C8010E946B0999249A949F0C47E0692D95
:10192000C8010E941E06282F40E06F2DC8010E94AA
:101930006D08F92CE3CFF801A088B188A114B10497
:1019400071F0642F660F660F660F695FC8010E9411
:101950002506482F70E060E08F2DF5010995C12C18
:10196000CBCFD8011E96ED91FC911F97309749F08F
:1019700053968C91811105C070E060E08E2D099521
:10198000C82EB50183E0660F771F8A95E1F74C2DCD
:10199000C8010E947C08D8015296DC92DD2009F42F
:1019A0007AC0C8010E944F0B8D2D29960FB6F8946E
:1019B000DEBF0FBECDBFDF91CF911F910F91FF9082
:1019C000EF90DF90CF90BF90AF909F908F907F90DF
:1019D0006F900895FC0183898823A9F1660F660F33
:1019E000660FC8010E942506C82E41E050E06E2D0A
:1019F000C8010E946B09BB24B394BE0C40E06B2D60
:101A0000C8010E941E06282F47E06E2DC8010E94C3
:101A10006D08EB2CFB1448F7D8011E96ED91FC9154
:101A20001F97309749F053968C91811105C061E062
:101A300070E08F2D0995C82EB8E0FB9EB0011124EF
:101A4000695F7F4FA4CFA088B188A114B10461F071
:101A5000660F660F660FC8010E942506482F61E0D9
:101A600070E08E2DF5010995C12CBFCF44E050E008
:101A70006E2DC8010E946B09E394FE14B8F78BCF5A
:101A8000A5016E2DC8010E946B09E394FE14C0F7F6
:101A900082CFD12C89CFDD24D39486CFCF93DF930F
:101AA000EC014AA169A1461720F0888199810E9422
:101AB000C70B8B8D882351F027E030E04AA169A144
:101AC00088819981DF91CF910C94EF0BDF91CF91B9
:101AD0000895CF92DF92EF92FF920F931F93CF93CF
:101AE000DF93EC01D62EC42E790180E04617E0F09A
:101AF0002A30310508F069C0CE010E942C0792E01F
:101B0000E916F10409F453C0C0F4E114F10429F119
:101B1000F1E0EF16F10409F443C0D394CD1478F743
:101B2000CE010E94980681E0DF91CF911F910F9125
:101B3000FF90EF90DF90CF90089583E0E816F104D6
:101B4000E9F194E0E916F10441F781E0011511058E
:101B500009F480E0819599E006C081E00115110546
:101B600009F080E09CE04D2D50E029852150330B99
:101B7000241B350B220F331F6C857D85260F371FE5
:101B8000F901908329852150330B241B350B220F3B
:101B9000331F4C855D85240F351FF9018183BDCF2F
:101BA000802F083011050CF087E09BE0DCCF802F00
:101BB000003111050CF08FE09AE0D5CF81E00115DE
:101BC000110509F480E09FE0CECF81E001301105DE
:101BD00009F080E0FBE0EF16F10449F08A8B013058
:101BE000110509F0A0CFCE010E944F0B9CCF8B8B2B
:101BF0009ACF0F931F93FC01678F062F10E022E00E
:101C000030E042A161A1808191810E94690D1F9104
:101C10000F9108950F931F939B018A01FC01418549
:101C2000415060E00E94690D1F910F9108951F932C
:101C3000CF93DF93EC01A881B98158961C918CA9B0
:101C4000180F89A9811768F48AA99BA9009711F038
:101C50000E94C92819AB812F90E00E942D289BABD0
:101C60008AABDF91CF911F910895CF92DF92EF92CF
:101C7000FF920F931F93CF93DF937C016B01EA01D7
:101C8000CA0101960E942D288C010097F1F0AE0147
:101C9000B6010E945229F801EC0FFD1F1082D701F6
:101CA000ED91FC910084F185E02DB801C701099503
:101CB000C8010E94C928CE01DF91CF911F910F91D9
:101CC000FF90EF90DF90CF900895D0E0C0E0F3CF89
:101CD000CF92DF92EF92FF920F931F93CF936C01FD
:101CE0007B01C42F8901DC019F96ED91FC91309717
:101CF00009F1808191818E159F05C1F40280F381E5
:101D0000E02D80818C1708F4C82F4C2F50E0BF01C4
:101D10006F5F7F4FC8010E9452298C2FCF911F9176
:101D20000F91FF90EF90DF90CF9008950480F581A0
:101D3000E02DDDCFF6018081918120AD31ADDC0158
:101D400054964D915C912417350751F021153105BA
:101D500011F42CE730E0FC01358B248B0E94EA045F
:101D60000115110509F448C0D6012D913C91F901E6
:101D7000858D968DB0E0A0E0418D528DE416F5067C
:101D8000A0F1638D748D6E157F0578F16489758976
:101D9000FB01E80FF91FE416F50659F0E4918E0FE8
:101DA000911DA11DB11D0196A11DB11D4F5F5F4F7A
:101DB000EFCF4491C41710F50196A11DB11DA801E4
:101DC000801B910B642F601B6C1708F0A6CFBC0121
:101DD000640F751FD9015496ED91FC91E60FF71F22
:101DE000E491DA01ED93AD01EDCF4C2F50E070E0BE
:101DF00060E0C8010E945B29C0E08FCFC491DCCFB6
:101E00001F93CF93DF93EC01142F2AA93BA949A973
:101E10000E94680E112389F0882379F090E02CA9A4
:101E2000921758F429A9821730F4EAA9FBA9E80F00
:101E3000F11D10828F5F9F5FF2CFDF91CF911F91D5
:101E400008950F931F93CF93DF93EC018B01ECA5C3
:101E5000FDA541E08181811101C040E0608170E019
:101E6000CE010E94000FF80180832E8D9A8D21FDF6
:101E700010C0992359F02E893F892530310581F40E
:101E8000682F8AA99BA90E9454030AC0288D398D06
:101E9000F4CF9923B9F02E893F892530310581F798
:101EA0008E8D80FF06C0F80160818AA99BA90E94DF
:101EB0006E03CE010E94480681E0DF91CF911F9111
:101EC0000F910895288D398DE8CF0F931F93CF93ED
:101ED000DF93EC01FB011082AAA5BBA5BDA7ACA7AF
:101EE000109719F08C91811108C081E08EA780E0D5
:101EF000DF91CF911F910F9108951EA68A8D9E8D1F
:101F000091FD10C0882359F08E899F89059781F42F
:101F10000D900020E9F71297BDA7ACA709C0888DE6
:101F2000998DF4CF882331F18E899F89059781F7A8
:101F3000ACA5BDA541E011968C911197811101C00E
:101F400040E08B016C9170E0CE010E94000FF8011F
:101F500080832E8D9A8D21FD13C0992371F02E89D7
:101F60003F892530310599F4682F8AA99BA90E94E1
:101F700054030DC0888D998DD9CF288D398DF1CF1F
:101F8000992399F02E893F892530310569F78E8D87
:101F900080FF06C0F80160818AA99BA90E946E0398
:101FA000CE010E94480681E0A3CF288D398DECCF69
:101FB000CF92DF92EF92FF920F931F93CF93DF9315
:101FC000EC010E944E0DCF84D8887E0185E3E80E97
:101FD000F11CB701CE010E94650F1FAA1EAA86013F
:101FE00089899A89081719077CF18DA92EA93FA91B
:101FF0008217130611F081110AC01DAA8EA5811146
:1020000004C0B701CE010E94210F1FAA1EAA8DA9EC
:10201000882331F3888199814EA95FA99A012F5FA6
:102020003F4FEAA9FBA9E40FF51F4B8D3FAB2EAB49
:10203000442341F040814095B8010E947C08015042
:102040001109CECF4081F8CFDF91CF911F910F9131
:10205000FF90EF90DF90CF900895FF920F931F9322
:10206000CF93DF93EC01F62E8B859C85442309F4F6
:1020700062C08430910530F5019758F18B859C85BD
:10208000059721F483E090E09C878B87CE010E9426
:10209000D80F0BA11CA12DA188A599A5820F911D78
:1020A00027FD9A9580179107E1F04B8D4195B80176
:1020B000888199810E947C088DA1080F111D87FDE0
:1020C0001A95E9CF0597D1F285E090E09C878B8740
:1020D0002CC0CE010E94780683E090E09C878B871D
:1020E000CDCFFF2069F06BA17CA10617170741F047
:1020F0004B8D81E048274195888199810E947C0819
:102100008BA19CA12DA1022E000C330B48A559A533
:10211000420F531F8417950721F445E050E05C8778
:102120004B87820F931F9CA38BA3DF91CF911F91AD
:102130000F91FF9008958430910500F5019700F10B
:10214000CE010E94D80F0EA11FA16BA17CA18DA171
:10215000082E000C990B9B01280F391F20173107FF
:10216000B9F04B8D4195B801888199810E947C0816
:102170008DA1080F111D87FD1A95E7CF059751F521
:10218000CE010E94780683E090E09C878B87D8CFB1
:10219000FF2079F028A539A5820F931F68177907CA
:1021A00041F04B8D81E048274195888199810E94BB
:1021B0007C088BA19CA12DA1022E000C330B48A5FD
:1021C00059A5420F531F8417950709F0AACF46E07F
:1021D00050E0A5CF86E090E079CFEF92FF920F9389
:1021E0001F93CF93DF93EC01F62E8B859C854423C0
:1021F00009F449C084309105C8F40197F0F0CE018C
:102200000E944E0DCE010E94D80F1BA1FF2031F17C
:1022100093E0E92EF12C173028F597014AA169A126
:10222000888199810E94EF0B1F5FF5CF059739F3E5
:1022300085E090E09C878B871FC01CA21BA210E04A
:1022400000E02BE030E04AA169A1888199810E94D9
:10225000690D83E090E09C878B87D1CF82E0E82EE8
:10226000F12CD9CF8BA19CA125E030E087309105DE
:1022700011F101969CA38BA3DF91CF911F910F9138
:10228000FF90EF90089584309105C0F40197C0F05D
:102290008881998122E030E0F11002C023E030E033
:1022A0004AA169A10E94EF0B8BA19CA187309105E7
:1022B00001F726E030E03C872B87DBCF059739F428
:1022C0001CA21BA283E090E09C878B87E1CF86E075
:1022D00090E0B0CFCF92DF92EF92FF921F93CF9317
:1022E000DF93EC01D42E8B859C85662309F458C0BE
:1022F00084309105A8F50197D0F1CE010E94D80F46
:102300002BA13CA12830310569F1EEA0FFA081E0AE
:1023100090E001C0880F2A95EAF7182FD110109588
:102320002DA188A599A5820F911D27FD9A958E153F
:102330009F0549F1C880D9806E2DC6010E942506EF
:102340009B8D412F9923E9F04095482BB701C60199
:102350000E947C088DA1E80EF11C87FDFA94E0CF65
:10236000059759F285E090E09C878B8711C0CE01DC
:102370000E9478061CA21BA283E090E09C878B87BA
:10238000BCCF4823E3CF8BA19CA101969CA38BA338
:10239000DF91CF911F91FF90EF90DF90CF90089544
:1023A0008430910598F5019798F1CE010E94D80FDD
:1023B0008BA19CA110E097FD05C011E001C0110F99
:1023C0008A95EAF7EEA0FFA0D11010952DA188A55F
:1023D00099A5820F911D27FD9A958E159F0531F1C4
:1023E000C880D9806E2DC6010E9425069B8D412F85
:1023F0009923D1F04095482BB701C6010E947C0873
:102400008DA1E80EF11C87FDFA94E0CF0597C1F489
:10241000CE010E94780687E090E09CA38BA383E026
:1024200090E09C878B87C1CF4823E6CF8BA19CA1EE
:1024300097FF04C026E030E03C872B870197A6CFAA
:1024400086E090E091CFFF920F931F93CF93DF939D
:10245000EC01F42E8B859C85662309F444C08430FE
:10246000910538F5019760F1CE010E94D80F2BA19C
:102470003CA188A599A528173907E9F00EA11FA14D
:102480008DA1082E000C990B2BA13CA148A559A5A4
:10249000480F591F4017510709F464C0F11018C0C4
:1024A00002171307C1F48DA1080F111D87FD1A959E
:1024B000E7CF0597C9F285E090E09C878B8756C0EF
:1024C000CE010E94780683E090E09C878B87CCCF7A
:1024D0000217130741F74B8D4195B8018881998107
:1024E0000E947C08E0CF8430910500F5019700F14F
:1024F000CE010E94D80F0EA11FA148A559A58DA1FC
:10250000082E000C990B2BA13CA1BA01680F791F72
:102510006017710701F1F11013C00217130799F446
:102520008DA1080F111D87FD1A95E7CF059721F59D
:10253000CE010E94780683E090E09C878B87D8CFFD
:102540000217130769F74B8D4195B801888199816E
:102550000E947C08E5CF2417350724F446E050E0BC
:102560005C874B87820F931F9CA38BA3DF91CF9136
:102570001F910F91FF90089586E090E09ECFEF921B
:10258000FF920F931F93CF93DF93EC01162F8B8550
:102590009C85442309F488C08330910528F0039773
:1025A000B1F185E090E02AC06F85788989899A89A0
:1025B0009B01281B390BC90137FD0196959587951D
:1025C00001969CA38BA31123B9F04B8D11E04127F9
:1025D0004195681B790B888199810E947C084B8DFD
:1025E0004127419569897A898BA19CA1680F791F40
:1025F000888199810E947C0883E090E09C878B878A
:10260000DF91CF911F910F91FF90EF9008958BA1D3
:102610009CA197FDC6CFCE010E94D80FF12CE12CD2
:102620006BA17CA1E616F706C4F44B8D4195698930
:102630007A896E0D7F1D888199810E947C084B8D5F
:1026400041956F8578896E197F09888199810E94EB
:102650007C083FEFE31AF30AE3CF615071097CA3D2
:102660006BA3112369F277FDCBCF4B8D11E041278E
:10267000419589899A89680F791F888199810E947B
:102680007C084B8D412741956F8578898BA19CA152
:10269000681B790B88819981DF91CF911F910F91F0
:1026A000FF90EF900C947C088330910531F108F095
:1026B00077C0019708F477C0CE010E944E0DCE017D
:1026C0000E94D80F1CA21BA2112399F04B8D01E090
:1026D000402741956F857889888199810E947C087F
:1026E0004B8D4027419569897A89888199810E941B
:1026F0007C0883E090E09C878B872BA13CA16F85B1
:10270000788989899A89AB01481B590BCA0157FD01
:10271000019695958795821793070CF444C04B8DCD
:102720004195621B730B888199810E947C084B8DB7
:10273000419569897A898BA19CA1680F791F88814D
:1027400099810E947C082BA13CA12F5F3F4F3CA3A5
:102750002BA3112309F454CF6F85788989899A892D
:10276000AB01481B590BCA0157FD019695958795FA
:10277000821793070CF444CF4B8D11E0412741950C
:10278000621B730B888199810E947C084B8D4127C5
:10279000419569897A898BA19CA1680F791F7ACFAD
:1027A000059709F489CF86E090E028CFCF92DF9299
:1027B000EF92FF920F931F93CF93DF93EC01162FAD
:1027C0008B859C85442309F458C084309105B0F56D
:1027D000019708F43AC0CE010E94D80F2BA13CA16A
:1027E00090E080E0111102C08FEF90E028173907C8
:1027F00039F1EEA0FFA02DA188A599A5820F911D0A
:1028000027FD9A958E159F0581F10B8DC880D98083
:102810006E2DC6010E942506011180954BA1111154
:102820004095482301114095B701C6010E947C08DC
:102830008DA1E80EF11C87FDFA94DDCF059759F2C2
:1028400085E090E09C878B8771C0CE010E9478065E
:102850008FEF90E0111102C081E090E09CA38BA368
:1028600083E090E09C878B87B6CF8BA19CA111233E
:1028700009F457C09595879557C08430910550F558
:10288000019750F1CE010E94D80FEEA0FFA02DA11C
:1028900088A599A5820F911D27FD9A958E159F05F4
:1028A00059F10B8DC880D9806E2DC6010E94250676
:1028B000011180954BA111114095482301114095BC
:1028C000B701C6010E947C088DA1E80EF11C87FDAE
:1028D000FA94DDCF0597C1F4CE010E94780681E01D
:1028E00090E0111102C08FEF90E09CA38BA383E0D6
:1028F00090E09C878B87C6CF8BA19CA1111107C04C
:10290000009709F0B7CF06C086E090E09BCF8F3FDD
:10291000910539F426E030E03C872B87112309F438
:10292000A9CF880F991F81609CA38BA3DF91CF91C2
:102930001F910F91FF90EF90DF90CF900895CF926D
:10294000DF92EF92FF920F931F93CF93DF93EC01EF
:10295000F62EC42E8B859C85222309F453C0843027
:10296000910508F5019730F1CE010E944E0DCE0180
:102970000E94D80F1BA1FF2071F193E0E92EF12CEA
:10298000D12C173060F597014AA169A188819981FE
:102990000E94EF0B96014AA169A1888199810E944A
:1029A000EF0B1F5FEECF0597F9F285E090E09C8773
:1029B0008B871FC01CA21BA210E000E02BE030E0C0
:1029C0004AA169A1888199810E94690D83E090E004
:1029D0009C878B87C9CF82E0E82EF12CD1CF8BA1C9
:1029E0009CA125E030E08730910569F101969CA318
:1029F0008BA3DF91CF911F910F91FF90EF90DF900C
:102A0000CF9008958430910508F5019708F18881E9
:102A1000998122E030E0F11002C023E030E04AA1C9
:102A200069A10E94EF0B21E02C2530E04AA169A1A9
:102A3000888199810E94EF0B8BA19CA18730910521
:102A4000A9F626E030E03C872B87D0CF059739F4F4
:102A50001CA21BA283E090E09C878B87D8CF86E0E6
:102A600090E0A5CFCF92DF92FF920F931F93CF9369
:102A7000DF93EC01F62E8B859C85442309F484C0FA
:102A80008330910570F0039751F185E090E09C87C9
:102A90008B87DF91CF911F910F91FF90DF90CF90A7
:102AA00008951CA21BA2CE010E944E0DFF2099F09A
:102AB0004B8D11E0412741956F85788988819981F7
:102AC0000E947C084B8D4127419569897A898881CC
:102AD00099810E947C0883E090E09C878B87CE01DF
:102AE0000E944E0DCE010E94D80F09891A898F8548
:102AF0009889801B910B97FD01966C01D594C79422
:102B00008BA19CA1080F191FC816D9060CF4BDCFC4
:102B10000F5F1F4F6F8578898BA19CA19B01281B9C
:102B2000390B0217130744F44B8D4195B801888186
:102B300099810E947C08ECCF01969CA38BA3FF2077
:102B400009F4A7CFC816D9060CF4A3CF4B8D11E01A
:102B500041274195681B790B888199810E947C08E7
:102B60004B8D4127419569897A898BA19CA1680F7A
:102B7000791F88819981DF91CF911F910F91FF90EB
:102B8000DF90CF900C947C0883309105D1F1A0F5B3
:102B90000197A0F18F85988929893A89821B930B27
:102BA00097FD0196959587959CA38BA3CE010E94D6
:102BB0004E0DCE010E94D80FFF20D9F04B8D11E0B1
:102BC000412741956F8578898BA19CA1681B790B62
:102BD000888199810E947C084B8D412741956989A4
:102BE0007A898BA19CA1680F791F888199810E94A5
:102BF0007C0883E090E04BCF059761F286E090E09F
:102C000046CF8BA19CA197FDF9CF4B8D41956F8548
:102C10007889681B790B888199810E947C084B8D8B
:102C2000419569897A898BA19CA1680F791F888158
:102C300099810E947C088BA19CA101979CA38BA3E6
:102C4000FF2009F426CF97FD24CF4B8D11E04127BB
:102C500041956F8578897ECF8F929F92AF92BF9278
:102C6000CF92DF92EF92FF920F931F93CF93DF9358
:102C7000EC01F62E8B859C85442309F4E0C08E017F
:102C80000B5C1F4F35E0C32ED12C82309105E9F04B
:102C900050F08330910509F441C0049709F4A8C0AD
:102CA00085E090E00FC0BE016B5C7F4FCE010E94BB
:102CB000650F811103C086E090E004C01FAA1EAA20
:102CC00083E090E09C878B870DC01DAA8EA588238A
:102CD000B1F0DC86CB868B859C852DA9211116C091
:102CE000059799F7DF91CF911F910F91FF90EF908A
:102CF000DF90CF90BF90AF909F908F900895B801D4
:102D0000CE010E94210F8111E6CFE3CF059751F349
:102D10001FAA1EAA83E090E09C878B878DA9882339
:102D200029F121E02F2530E04AA169A1888199810C
:102D30000E94EF0B888199816B8D2AA93BA94EA92E
:102D40005FA9662301F1BA016F5F7F4F7FAB6EAB66
:102D5000240F351FF90140814095FF20F1F069A152
:102D6000F8E06F9FB00111240E947C082DA98EA964
:102D70009FA92817190609F0B5CF8EA5811115C096
:102D800082E090E09FCFBA016F5F7F4F7FAB6EAB69
:102D9000240F351FF9014081E0CF6AA128E0629F2E
:102DA000B0011124695F7F4FDFCF2F853889FF2065
:102DB000B1F08D859E85A901481B590BCA0101966A
:102DC00029A158E0259F8019910911249FAB8EAB52
:102DD000181619060CF064CF84E090E073CF8AA136
:102DE000E8E08E9FC00111240796821B930BEECF63
:102DF00021E0262730E04AA169A1888199810E94BB
:102E0000EF0B888199814B8D4195FF2081F069A15D
:102E1000F8E06F9FB00111240E947C088EA99FA941
:102E200001979FAB8EAB892B09F05CCF39CF6AA19C
:102E300028E0629FB0011124695F7F4FEDCF84309D
:102E4000910539F0059709F036CF84E090E09C8732
:102E50008B8721E02F2530E04AA169A188819981E3
:102E60000E94EF0B888199814B8D4195FF2009F4D9
:102E700045C069A138E0639FB00111240E947C081D
:102E80000AA110E0A9A0B12C6801CA18DB088FEFD5
:102E9000C81AD80A23E0CC0CDD1C2A95E1F78C8DEA
:102EA0009D8D009721F08C159D0508F46C010F5F36
:102EB0001F4F83E0000F111F8A95E1F793E0AA0CE2
:102EC000BB1C9A95E1F7FF2021F145017401EA1836
:102ED000FB0880169106DCF5682D888199810E9497
:102EE000250690E02B8D222389F02FEF30E082170A
:102EF000930769F5EFEF8E1A9E0AE8CF6AA158E0B2
:102F0000659FB0011124695F7F4FB8CF30E020E0AA
:102F1000EECF01501109F12CE12C0A151B05BCF074
:102F2000602F888199810E94250690E02B8D2223B5
:102F300059F02FEF30E08217930749F4015011093F
:102F4000FFEFEF1AFF0AE9CF30E020E0F4CFEC14F6
:102F5000FD0408F0B0CEC6CE2F923F924F925F9202
:102F60006F927F928F929F92AF92BF92CF92DF9299
:102F7000EF92FF920F931F93CF93DF93CDB7DEB7FE
:102F800060970FB6F894DEBF0FBECDBF2C019C0139
:102F90002C5F3F4F3A87298750E040E06AE070E0BD
:102FA000C9010E940A0E1F821886A201445D5E4F6D
:102FB0005C874B87E2E42E2EAB85BC858C91BF816C
:102FC000B81710F00C94F1226B2E712CF2012B9E8D
:102FD000E00DF11D1124DF01AD5BBF4F1C9286A5F2
:102FE00097A58630910511F40C942622059729F1B6
:102FF0008FB7F8944091D6015091D7016091D801D4
:103000007091D9018FBF269CF001279CF00D1124EF
:10301000E40DF51D86A197A1A0A5B1A5481B590BEC
:103020006A0B7B0B82A593A5B0E0A0E04817590777
:103030006A077B0700F580E0C9C18FB7F89440911B
:10304000D6015091D7016091D8017091D9018FBFFD
:1030500086A197A1A0A5B1A5481B590B6A0B7B0BB4
:1030600084A595A5B0E0A0E0481759076A077B073B
:1030700008F0BECFE0CF15A11111DDCF2FB7F89426
:103080008091D6019091D701A091D801B091D9013A
:103090002FBF86A397A3A0A7B1A781E0DF01AD5BF7
:1030A000BF4F8C931A96AD90BC90A114B10409F453
:1030B0007FC13F81329D40011124A4014D5D5F4FCE
:1030C000440D551D588B4F8786A597A5009709F489
:1030D00037C0069709F46CC1269CF001279CF00DBF
:1030E0001124E40DF51D35AC332009F4F9C001AC11
:1030F000F2ADE02D3197EC31F10510F00C941E2269
:10310000EC57F74E0C9427289919B919ED19F019B5
:10311000F7192A20FA19E51BF61C8D1E9A1D511F5E
:10312000CB21D321DE21D621E821E021EA21F221A1
:10313000F521FD21002209220C22102213221B223C
:10314000DF01A15BBF4F1196BC92AE921A97CC9053
:1031500058E0C59E60011124C60107966C011197C5
:103160008C9198E0899FC018D1081124AFEFCA1A3A
:10317000DA0AF12CE12C9F012B5A3F4F3A83298325
:10318000AF014C5A5F4F5E834D83CF01895A9F4FE9
:103190009E878D87D5016D915D016623D9F0E98108
:1031A000FA812081318170E0AD81BE814C918F85A3
:1031B00098890E94680E90E0E80EF91E892B51F361
:1031C000F5018081882331F3AD85BE858C91E80EB1
:1031D000F11CE0CF269CF001279CF00D1124E40D9A
:1031E000F51DF1AAE0AA87A990AD8130910509F4F7
:1031F00048C020F00297E1F011E030C0DF01AB5B86
:10320000BF4F8C9190E0019673E0880F991F7A95DB
:10321000E1F79C012150310933AB22AB1197CE1459
:10322000DF0408F441C08E199F0995AB84ABE4CF4D
:10323000DF01AC5BBF4F8C9128E0829FC00111245D
:1032400095AB84ABCE14DF04B0F411968C9138E0CA
:10325000839FC0011124079693AB82AB269CF0019B
:10326000279CF00D1124E40DF51D81E0912F982786
:1032700096AB85AF31CF0197E80EF91EF3AAE2AA0B
:10328000BBCFAF014C5B5F4FCE14DF04A8F4CF017E
:103290008B5B9F4FDC018C91B8E08B9FC0011124A8
:1032A000079693AB82ABDA018C91B8E08B9FC0019B
:1032B000112495AB84ABD2CFDA018C91B8E08B9F0F
:1032C000C0011124CE18DF08D694C794C80ED91EA9
:1032D000D5AAC4AA21E0E21AF108EC0CFD1CCECF5D
:1032E00003ACF4ADE02D3197EC31F10510F00C9406
:1032F0001E22E358F64E0C942728A919B919ED1986
:10330000F019F7192A20FA19E51BF61C8D1E9A1DD3
:10331000511FCB21D321DE21D621E821E021EA2152
:10332000F221F521FD21002209220C221022132274
:103330001B228F8598890E94D80F269CF001279C1C
:10334000F00D1124E40DF51D45E050E057A746A708
:1033500016C08F8598890E944E0D269CF001279CEF
:10336000F00D1124E40DF51D86E090E097A786A7E7
:1033700006C0432D61E08F8598890E94ED10269C40
:10338000F001279CF00D1124E40DF51D85AD882377
:1033900039F081E026A537A52530310509F480E014
:1033A000269CF001279CF00D1124E40DF51D85AF3E
:1033B000269CF001279CF00D1124E40DF51D81E001
:1033C00026A537A52630310509F035CE3885382BAE
:1033D00038874F814F5F4F83EFCD432D60E0CBCFD8
:1033E000432D61E08F8598890E942C16C8CF432D0C
:1033F00060E0F8CF269C8001279C100D1124040D5D
:10340000151D68019EE2C90ED11CD8019E968D91B2
:103410009C919F97332009F422C182309105B1F12C
:1034200048F0039709F46FC025E030E0F80137A7B2
:1034300026A7A5CFB401685A7F4F640D751D8F85EF
:1034400098890E94650F811103C026E030E0EECF1D
:103450008F8598890E944E0DF801E75AFF4F11821F
:1034600010827397D801AC5BBF4F8C9138E0839F7B
:10347000C001112491838083D801D2968D919C91B3
:1034800035969183808323E030E0D0CFC401885A01
:103490009F4F5201A80EB91E7801480138E5830EEE
:1034A000911CA8014F5A5F4F5A834983D4011C9243
:1034B000E981FA818081882379F0E5E0F0E0D601A6
:1034C000ED93FC93D6018D919C91F4012081211103
:1034D0000BC0059759F753CFB5018F8598890E9486
:1034E000210F8111EFCFE9CF059709F448CFF701FC
:1034F000E75AFF4F11821082E3E0F0E0D8019F9677
:10350000FC93EE939E97269C9001279C300D1124EE
:10351000240D351D3A83298389010A5B1F4FD80189
:103520006D917C91F901E55BFF4F8081918169018B
:10353000B5E5CB0ED11C7901E9E5EE0EF11CD60103
:10354000ED91FC91D7012D913C91E20FF31F408149
:103550006817790789F4E981FA8183A194A126ADDE
:10356000211140950E947C08269CF001279CF00DBB
:103570001124E40DF51D97C141114BC0D8018D9365
:103580009C93269CC001279C900D1124840D951DB1
:10359000DC01AA5BBF4F2D913C9111978C01055B1B
:1035A0001F4FF8014081518124173507C9F4BC0130
:1035B0006C5B7F4FFB014081F8E04F9FA00111241D
:1035C00011965C934E9353964D915C9111974F5F7A
:1035D0005F4F4D935C9321503109D8012D933C935B
:1035E000269CF001279CF00D1124E40DF51DAF0180
:1035F000475A5F4F9F01285A3F4FD9012C91DA015A
:103600008D919C912817190609F0B9CE82E090E0BF
:10361000ADCEE981FA8146AD419583A194A10E9486
:103620007C08D8016D917C9111976F5F7F4F6D93EE
:103630007C93E981FA8183A194A146ADD601ED91F5
:10364000FC91D7012D913C91E20FF31F442329F007
:10365000408140950E947C0894CF4081FBCF81300F
:10366000910508F4EBC68430910598F0059709F0B0
:10367000E5C6D2968D919C91F801E55BFF4F918351
:10368000808335979183808323E030E0F80137A76A
:1036900026A7269CF001279CF00D1124E40DF51DB2
:1036A000E3A0F4A086AD88248A94912C811102C0F5
:1036B000912C812C269CA001279C500D1124440D97
:1036C000551DDA01D496CD90DC905A01B6E4AB0ECC
:1036D000B11CFA01E55BFF4FFA83E983D5010D9137
:1036E0001C91602FC7010E942506E981FA81208183
:1036F00031818815190459F42C153D0544F0C90190
:10370000019791838083D5012D933C93E7CF2F5F61
:103710003F4F269CF001279CF00D1124E40DF51D70
:103720002C153D051CF426E030E081CEEB5BFF4F0D
:10373000208148E0249F90011124295F3F4F021708
:1037400013073CF4B8016F5F7F4F482FC7010E94F9
:103750007C08269C8001279C100D1124040D151D4A
:10376000D801DE964C91DE974195F801EA5BFF4F58
:10377000FA83E9836081718193968D919C910E9477
:103780007C08E981FA81208131812F5F3F4F3183AD
:103790002083F801EB5BFF4F808190E0019643E0CE
:1037A000880F991F4A95E1F72817390709F0E7CDE7
:1037B0003696808191819C0121503109318320838B
:1037C000A981BA818D939C93DACD269CF001279C28
:1037D000F00D1124E40DF51D86A597A5332009F4FD
:1037E00087C08430910508F05BC0019708F45EC083
:1037F0008F8598890E944E0D8F8598890E94D80FD9
:10380000269CC001279C900D1124840D951D9E8738
:103810008D87FC01EC5BFF4F8081F82EFF0CFF0CC5
:10382000FF0C8D849E84D401AA5BBF4FBA83A98309
:10383000F401EB5BFF4FFE83ED83F3E28F0E911CEF
:10384000EE24E394A981BA810D911C91ED81FE8152
:10385000808190E0019623E0880F991F2A95E1F777
:10386000AF2CB12CA816B90684F5D401CD90DC900C
:103870006F2DC6010E942506482F50E087E090E09A
:10388000801B910B3320E1F002C0559547958A9536
:10389000E2F7B501C6010E947C083E24F394D2CF22
:1038A000059709F4A5CF25E030E0C1CDDF01AA5B83
:1038B000BF4F1D921C9243E050E057A746A798CFF8
:1038C00001C0440F8A95EAF7E4CF0F5F1F4FE981EB
:1038D000FA8111830083E5E0F0E0AD85BE85083014
:1038E000110509F04CCD9F96FC93EE939E9747CD22
:1038F0008430910508F04FC0019708F44EC0269C13
:103900008001279C100D1124040D151DF801EC5B9E
:10391000FF4F8081382E330C330C330C91E09983A8
:1039200048017801A6E4EA0EF11C3196FE83ED838E
:10393000F3E28F0E911CD7010D90BC91A02DBE8794
:10394000AD87ED81FE81808190E00196B3E0880F24
:10395000991FBA95E1F7A32CB12CA816B906BCF5AE
:10396000D401CD90DC90632DC6010E942506482F1E
:1039700050E0B981BB2321F10D8401C0440F0A94AA
:10398000EAF7B501C6010E947C08E981F1E0EF2762
:10399000E9833394D0CF059731F5269CF001279C1D
:1039A000F00D1124E40DF51DDF01AA5BBF4F41E0CE
:1039B00050E04D935C9383E090E097A786A79FCF5C
:1039C0000D8402C0559547950A94E2F7DACF2D850C
:1039D0003E852F5F3F4FD7012D933C932830310513
:1039E00009F0CDCC32CD46E050E0B0CC269C800131
:1039F000279C100D1124040D151DD8019E968D9144
:103A00009C91332009F458C084309105E8F4823049
:103A10009105E8F40097E1F1019709F0A5CDF801CF
:103A2000EA5BFF4F60817181CB01019691838083B6
:103A30008F8598890E94F90D8F8598890E94D80FEB
:103A4000E3E0F0E0D8014FCF059709F08DCD269C3B
:103A5000F001279CF00D1124E40DF51D9F012A5B58
:103A60003F4FD9016D917C91CF01855B9F4FDC0168
:103A70008D919C91861797070CF415CFCB01019679
:103A8000D9018D939C938F8598890E94F90D77CCED
:103A9000F801EA5BFF4F118210823596AF85B88935
:103AA0005F968C915F9790E091838083CD010E9417
:103AB0004E0D21E030E0BACC84309105B0F401978E
:103AC000B0F0F801EA5BFF4F6081718177FF2DC094
:103AD000359660818F8598890E94F90D8F85988928
:103AE0000E944E0DE6E0F0E0ADCF0597D9F7AF8527
:103AF000B8895F966C915F97862F90E0269C800135
:103B0000279C100D1124040D151DF801E55BFF4FD6
:103B100091838083359791838083CD010E94F90D35
:103B20008F8598890E94D80FAECCCB0101979183E5
:103B30008083A9CF269CF001279CF00D1124E40D71
:103B4000F51D86A597A58230910509F484C080F4FF
:103B50000097A1F0019711F13110A0C186E090E02B
:103B6000269CF001279CF00D1124E40DF51DFECBE1
:103B70008330910509F487C1059771F7269CF00100
:103B8000279CF00D1124E40DF51DDF01AA5BBF4F4A
:103B90001D921C9221E030E037A726A7269C400109
:103BA000279C900C1124840C951CF401EA5BFF4FB8
:103BB00080819181019691838083D401AC5BBF4F5A
:103BC0003C9168E0369FA00111245A834983740117
:103BD0008F01640155E4C50ED11C54016EE3A60E9D
:103BE000B11C3324339483E2E80EF11CD8012D91EB
:103BF0003C91F601808190E00196A3E0880F991F27
:103C0000AA95E1F749815A8148175907C4F4CA01B6
:103C100083709927821793075CF4D5014C91432553
:103C2000419569817A81F701808191810E947C08A8
:103C300029813A812F5F3F4F3A832983D7CF82E092
:103C400090E0D4012430310509F099CB9F969C93E4
:103C50008E939E9794CB8F8598890E944E0D33202A
:103C600021F08F8598890E94D80F269C4001279CBF
:103C7000900C1124840C951CF401EA5BFF4F8081A9
:103C80009181019791838083D401AC5BBF4F2C91CC
:103C900068E0269FA00111245A83498374018F0193
:103CA000640155E4C50ED11C54016EE3A60EB11C8F
:103CB0003324339483E2E80EF11CD8012D913C911A
:103CC000F601808190E00196F3E0880F991FFA9544
:103CD000E1F749815A8148175907C4F4CA01837032
:103CE0009927821793075CF4D5014C9143254195A0
:103CF00069817A81F701808191810E947C08298104
:103D00003A812F5F3F4F3A832983D7CFE3E0F0E03A
:103D1000D401232B09F4E7CD32CB269CF001279C5C
:103D2000F00D1124E40DF51D86A597A582309105AF
:103D300009F455C038F08330910509F4A4C0059703
:103D400009F00ACF269C8001279C100D1124040D38
:103D5000151DF801EC5BFF4F208168E0269FA00154
:103D600011245A8349837801480155E4850E911C3A
:103D700058016EE3A60EB11C83E2E80EF11CD401DB
:103D80008C9190E00196E3E0880F991FEA95E1F7A6
:103D9000E981FA81E817F907F4F4D5013C90F701BD
:103DA000C080D1806981C6010E94250631108095AE
:103DB000F98145E5F0FF4AEA482B311040956981C9
:103DC0007A81C6010E947C0829813A812F5F3F4F8A
:103DD0003A832983D4CF82E090E0D80137CF8F8512
:103DE00098890E944E0D332021F08F8598890E947A
:103DF000D80F269C8001279C100D1124040D151D41
:103E0000F801EC5BFF4FB08128E0B29FF001112474
:103E1000FA83E98378014801F5E48F0E911C58017B
:103E20002EE3A20EB11C33E2E30EF11CD4018C91FF
:103E300090E0019673E0880F991F7A95E1F7E98188
:103E4000FA81E817F9070CF0FBCDD5013C90F7019A
:103E5000C080D1806981C6010E94250631108095FD
:103E6000F9814AEAF0FF45E5482B31104095698118
:103E70007A81C6010E947C0829813A812F5F3F4FD9
:103E80003A832983D3CF8F8598890E944E0D3320A2
:103E900009F464CE8F8598890E94D80F85E090E060
:103EA0005FCE269CF001279CF00D1124E40DF51D3A
:103EB00086A597A58430910508F091C0019708F474
:103EC00091C0269C8001279C100D1124040D151D06
:103ED0000A5B1F4FD8011D921C920E946C274B0158
:103EE0005C010E946C2769837A838B839C83F80131
:103EF000C080D180FFEFCF1ADF0AD801CD92DC92CB
:103F0000C501B4012BE030E040E050E00E94C4273E
:103F100070E0FB01EC53FE4F7F01B08069817A8134
:103F20008B819C8128E030E040E050E00E94C42773
:103F30008B2D90E0062E02C0959587950A94E2F7A6
:103F400080FF05C0F8E8CF16F3E1DF0634F281E028
:103F500090E001C0880F6A95EAF7B82AD701BC92B1
:103F60008F8598890E94D80F269CF001279CF00D20
:103F70001124E40DF51DFA83E983EA5BFF4F1182FA
:103F80001082A981BA81AC5BBF4F9C90990C990CAF
:103F9000990CC980DA8025E4C20ED11C49815A816E
:103FA0004D5D5F4F5A8349838F01D6018C9190E01C
:103FB000019663E0880F991F6A95E1F7A92CB12C4F
:103FC000A816B9061CF1E4ECF1E081918F3F09F0ED
:103FD000D6C92CEC31E02E173F07B9F7BDCD0597B8
:103FE00009F0BACDE4ECF1E08FEC91E011928E177C
:103FF0009F07E1F7269CF001279CF00D1124E40DAA
:10400000F51D23E030E037A726A75BCFE981FA81D1
:10401000E080F180692DC7010E942506D801ED914D
:10402000FC91EC53FE4F4081311001C04095482374
:10403000B501C7010E947C08F80180819181019639
:104040008B30910521F0918380839394AECF1182C0
:104050001082FBCF269C8001279C100D1124040D9B
:10406000151DD8019E968D919C913110F2C184301E
:10407000910508F0B2C2019708F042C08F85988977
:104080000E947806269CF001279CF00D1124E40D77
:10409000F51DDF01A75BBF4F8D919C911197E55BEB
:1040A000FF4F208131818217930724F42D933C9395
:1040B00091838083269CF001279CF00D1124E40D50
:1040C000F51DDF01A15ABF4F8D919C91892B09F4F9
:1040D0002ACBAF014A5B5F4FCF018C5B9F4FDC0166
:1040E0008C91B8E08B9FC00111240197DA011196E1
:1040F0009C938E9312961C9223E030E037A726A75C
:104100008F8598890E94D80F269CA001279C500D6E
:104110001124440D551D5E874D87FA01EA5BFF4F60
:1041200080819181019691838083312C4E595F4F1C
:104130005A834983FE83ED838D849E8455E4850EE6
:10414000911C0D851E850C5B1F4FED84FE8463E280
:10415000E60EF11CCD84DE848FE5C80ED11CAD8443
:10416000BE8498E4A90EB11CAD85BE85DE96BE87DF
:10417000AD87E981FA812081AD81BE816D917C910D
:10418000822F90E0321608F09DC0432D50E0641B52
:10419000750BF401808190E0019633E0880F991F40
:1041A0003A95E1F7681779071CF5D8018C91B8E0CA
:1041B0008B9FC001112468177907D4F0F701808123
:1041C0009181D5013C91320390011124420F531F7C
:1041D000D601ED91FC91E40FF51FAD85BE852C91C4
:1041E000222309F46DC0E4914E2F40950E947C0873
:1041F0003394BFCF4491E7C1FB013197FA83E98340
:10420000269C8001279C100D1124040D151D5801BA
:10421000FBE4AF0EB11C68012EE3C20ED11C780185
:1042200033E2E30EF11CD5018D919C91E981FA8175
:10423000E817F90784F0D6014C914195BF01F701C9
:10424000808191810E947C0829813A812150310925
:104250003A832983E8CFD801A85BBF4F8C918F5F49
:104260008C93082E000C990BF801ED59FF4F20811B
:104270002817190609F00CF41C92269CF001279CC3
:10428000F00D1124E40DF51DAF014A5B5F4F9F0156
:104290002C5B3F4FD9018C91B8E08B9FC00111245A
:1042A000BF016F597F4FDB012C91821B9109019750
:1042B000DA012D913C912817390709F060C8F3CA3B
:1042C000449194CFFB01E81BF90BFA83E983269C08
:1042D0008001279C100D1124040D151D5801FBE4CD
:1042E000AF0EB11C68012EE3C20ED11C780133E27F
:1042F000E30EF11CD5018D919C91E981FA81E817BB
:10430000F90784F0D6014C914195BF01F7018081F6
:1043100091810E947C0829813A81215031093A8398
:104320002983E8CFD801A85BBF4F8C918F5F8C9316
:10433000082E000C990BF801EC59FF4F208128172B
:10434000190609F00CF41C92269CF001279CF00D34
:104350001124E40DF51DAF014A5B5F4F9F012B5BFC
:104360003F4FD9018C91B8E08B9F90011124295FB8
:104370003F4FBF016E597F4FDB018C91820F932F0E
:10438000911D0196DA012D913C912817390711F002
:104390000C94BF19C8C9432D60E08F8598890E948D
:1043A0002D100C94BF19432D61E0F7CF41E0632D30
:1043B0008F8598890E9423120C94BF1940E0F7CF93
:1043C00041E0632D8F8598890E946A110C94BF1972
:1043D00040E0F7CF432D60E08F8598890E94BF129F
:1043E0000C94BF19432D61E0F7CF432D60E08F851A
:1043F00098890E9432150C94BF19432D61E0F7CFC4
:10440000232D41E061E08F8598890E949F140C94D0
:10441000BF19232D40E0F6CF232D41E060E0F3CF1C
:10442000232D40E0FBCF432D61E08F8598890E94CA
:10443000D6130C94BF19432D60E0F7CF269CF001F2
:10444000279CF00D1124E40DF51D6DC981E00C943D
:10445000E6198430910508F0BAC0019708F03FC012
:104460008F8598890E947806D801A75BBF4F8D91F0
:104470009C911197F801E55BFF4F208131818217F4
:10448000930724F42D933C9391838083269CF00121
:10449000279CF00D1124E40DF51DDF01A35ABF4F39
:1044A0008D919C91892B09F43EC9DF01A85BBF4F18
:1044B0001C929F012A5B3F4FCF018B5B9F4FDC011A
:1044C0008C9190E0019653E0880F991F5A95E1F77F
:1044D000D9018D939C9323E030E037A726A78F85E1
:1044E00098890E94D80F269CA001279C500D11246A
:1044F000440D551D5E874D87FA01EA5BFF4F8081B1
:104500009181019791838083312C4F595F4F5A835A
:104510004983FE83ED838D849E8455E4850E911C32
:104520000D851E850C5B1F4FED84FE8463E2E60E55
:10453000F11CCD84DE848DE5C80ED11CAD84BE8413
:1045400098E4A90EB11CAD85BE85DE96BE87AD8709
:10455000E981FA812081AD81BE816D917C91321615
:1045600008F04ACEE32DF0E06E0F7F1FD4018C914E
:1045700090E0019643E0880F991F4A95E1F768178C
:1045800079071CF5D8018C91B8E08B9FC0011124EC
:1045900068177907D4F0D7018D919C91D5014C9182
:1045A0004203A00111244E0F5F1FD601ED91FC9133
:1045B000E40FF51FAD85BE852C91222309F41ACE98
:1045C000E4914E2F40950E947C083394C1CF05970B
:1045D00009F485CFE5E0F0E035CA059709F44ECD42
:1045E00081CA41E050E06AE070E089859A850E94C6
:1045F0000A0E888560960FB6F894DEBF0FBECDBF59
:10460000DF91CF911F910F91FF90EF90DF90CF90AE
:10461000BF90AF909F908F907F906F905F904F90E2
:104620003F902F9008950F931F93CF93DF93EC014A
:104630008B01FC01E45DFE4F8081882381F0EF5DFA
:10464000F109718360831BA61AA61DA61CA681E032
:1046500090E09AAF89AF1CAE1BAE1FA61EA6CE017E
:104660000E94AC178111FBCFF80101900020E9F7FF
:10467000CF010197801B910BDF91CF911F910F917B
:1046800008951F920F920FB60F9211242F933F930C
:104690004F935F936F937F938F939F93AF93BF934A
:1046A000EF93FF938DE092E00E940F04FF91EF9152
:1046B000BF91AF919F918F917F916F915F914F913A
:1046C0003F912F910F900FBE0F901F9018951F9242
:1046D0000F920FB60F9211242F938F939F93EF9306
:1046E000FF93E0911D02F0911E028081E091230270
:1046F000F091240282FD1BC09081809126028F5F81
:104700008F7320912702821741F0E0912602F0E09A
:10471000E35FFD4F958F80932602FF91EF919F916C
:104720008F912F910F900FBE0F901F901895808141
:10473000F4CF1F920F920FB60F9211242F933F9335
:104740008F939F93AF93BF938091D6019091D701A0
:10475000A091D801B091D9013091D50123E0230F68
:104760002D3758F50196A11DB11D2093D5018093D9
:10477000D6019093D701A093D801B093D90180912D
:10478000D1019091D201A091D301B091D4010196B1
:10479000A11DB11D8093D1019093D201A093D301AB
:1047A000B093D401BF91AF919F918F913F912F9181
:1047B0000F900FBE0F901F90189526E8230F0296BA
:1047C000A11DB11DD2CF1092100210920F0288EEDF
:1047D00093E0A0E0B0E08093110290931202A093C6
:1047E0001302B093140283E491E090930E0280933D
:1047F0000D0285EC90E090931A028093190284ECEC
:1048000090E090931C0280931B0280EC90E09093C8
:104810001E0280931D0281EC90E090932002809311
:104820001F0282EC90E0909322028093210286EC9A
:1048300090E090932402809323021092260210921B
:10484000270210922802109229021092AD021092B3
:10485000AC0285E591E09093AB028093AA0210929E
:10486000B3021092B4029AE09093B50281E0809373
:10487000B6029093B7028093C0021092AF021092DA
:10488000AE028093B0028093B1021092B202EDECBE
:10489000F2E026E030E01282138214821582168242
:1048A00034872387158E148E168E10AA17A611AA88
:1048B00013AA12AA84AB11AE10AE13AE12AE15AE8F
:1048C00014AEEE5BFF4F93E0E53DF90721F78AE078
:1048D0008093D5030895789484B5826084BD84B5AF
:1048E000816084BD85B5826085BD85B5816085BDEB
:1048F00080916E00816080936E00109281008091A3
:10490000810082608093810080918100816080932A
:104910008100809180008160809380008091B1004F
:1049200084608093B1008091B00081608093B0007A
:1049300080917A00846080937A0080917A0082600E
:1049400080937A0080917A00816080937A008091D0
:104950007A00806880937A001092C100E0911D0275
:10496000F0911E0282E08083E0911D02F0911E0210
:104970001082E0911902F0911A021082E0911B025C
:10498000F0911C0280E1808310922502E0912102C7
:10499000F091220286E08083E0911F02F0912002D4
:1049A000808180618083E0911F02F09120028081EC
:1049B00088608083E0911F02F091200280818068EE
:1049C0008083E0911F02F091200280818F7D80839F
:1049D00044E650E06FE571E08DE092E00E949103C3
:1049E0008091B602882309F4B1C0CFB7F8948091C2
:1049F000DA01811124C0E4ECF5E08491E8EDF5E002
:104A00009491E82FF0E0EE0FFF1FE055FA4FA591CB
:104A1000B491EC91E92321F461E08AE00E949E04C4
:104A20008AE00E941D038CB580618CBD8CB58064CA
:104A30008CBD8DE00E941D038BE00E941D038091C0
:104A4000DA018F5F8093DA01CFBF8091B5020E94B7
:104A50001D0361E08091B5020E949E041092BD0288
:104A60001092BC021092BF021092BE02C091B70217
:104A700029E0C29FC00111240E942D289093B90201
:104A80008093B8028C2F90E0880F991F0E942D28E8
:104A90009093BB028093BA028091C2029091C302AC
:104AA0008C57904051F08CE790E09093C302809334
:104AB000C2028EEA92E00E94EA0450E040E063E025
:104AC00070E08EEA92E00E940A0E47E050E061E05A
:104AD00070E08EEA92E00E940A0E47E050E062E049
:104AE00070E08EEA92E00E940A0E50E040E064E03E
:104AF00070E08EEA92E00E940A0E4091B7024150A7
:104B000060E08EEA92E00E94C70B50E040E070E067
:104B100060E08EEA92E00E940A0E81E08093D60364
:104B2000C0E0D2E40EEA12E08091D603C817B8F4D0
:104B3000DC9FC0011124FC01E655FD4F14A303A323
:104B400083539D4F0E94170ECF5FEECF8091B3022B
:104B50000E941D038091B4020E941D0376CF813014
:104B600051F49091D5038FEF890F891720F410929B
:104B7000EE028093EF0280E092E42AE030E0409180
:104B8000D603841748F4899FF0011124E353FD4FA5
:104B9000308727838F5FF3CF8091D4029091D50225
:104BA0004AE0489F9001499F300D112480E092E433
:104BB0004091D603841748F4899FF0011124E353F0
:104BC000FD4F328721878F5FF3CFC0E012E4D1E041
:104BD0008091D603C81768F41C9FC0011124FC0102
:104BE000EF5FFC4FD08383539D4F0E94170ECF5F22
:104BF000EFCF80E092E42091D603821748F4899F9A
:104C0000F0011124E353FD4F158E148E8F5FF3CF07
:104C100080E022E49091D603891778F0EAEAF2E086
:104C200080E021E030E0891789F032AF21AF14AE87
:104C300013AE8F5FEE5BFF4FF6CF829FF001112422
:104C4000E353FD4F158A148A8F5FE4CF1092F80268
:104C50001092F70280E092E42091D603821740F48C
:104C6000899FF0011124E353FD4F138E8F5FF4CF22
:104C7000C0E0D2E48091D603C81750F4CD9FC001A4
:104C8000112467E083539D4F0E94F90DCF5FF2CF4F
:104C90008091C2029091C302892B51F08CE790E081
:104CA0009093C3028093C2028EEA92E00E94EA04CB
:104CB0008091D603882321F18BED91E09093F80247
:104CC0008093F7021092E2021092E10288E290E0F3
:104CD0009093D5028093D40288EE93E09093D7020C
:104CE0008093D60284E090E09093E4028093E30204
:104CF0009093E6028093E5021092D9021092D802B6
:104D000082E4F82EC0E0D0E002E011E0EE24E3946B
:104D10008AEA92E00E94AC178823F9F0809134016E
:104D2000882341F062E071E08BED91E00E946229FE
:104D30001092340180E09091D603891770F48F9D12
:104D4000F0011124E353FD4F148613868F5FF3CFD8
:104D50003196F0930101E09300018DE092E00E9412
:104D6000EF03892BC1F08DE092E00E94CD03E0912A
:104D70000001F091010180838A3029F0CF01825037
:104D80009140C0972CF31082109301010093000111
:104D9000E0923401E2CF209709F4BACF0E94FB03DE
:104DA000882309F4B5CF0E940000B2CF0F931F9360
:104DB000CF93DF9385E591E09093AB028093AA02B5
:104DC000C5EDD3E0C254D1098FA598A9009739F059
:104DD000FC01048115810E94C928C801F7CF8AA966
:104DE0009BA9009711F00E94C928F2E0CD3CDF0793
:104DF00049F78091B602882399F09FB7F894809183
:104E0000DA01882319F081508093DA018091DA0168
:104E1000811105C08CB58F7B8CBD1092D0019FBFD6
:104E20008091B8029091B9020E94C9288091BA027B
:104E30009091BB02DF91CF911F910F910C94C928E3
:104E40008F929F92AF92BF92CF92DF92EF92FF929A
:104E5000CF93DF93EC01688179818A819B81611511
:104E600071058105910521F464E279ED8BE597E008
:104E70002DE133EF41E050E00E94C42749015A017F
:104E80009B01AC01A7EAB1E40E94E3276B017C011E
:104E9000ACEEB4EFA50194010E94F127C60ED71E17
:104EA000E81EF91EF7FE06C081E0C81AD108E10825
:104EB00080E8F80AC882D982EA82FB82C701B6017B
:104EC0009F77DF91CF91FF90EF90DF90CF90BF90D1
:104ED000AF909F908F9008958F929F92AF92BF92C4
:104EE000CF92DF92EF92FF9260913501709136017F
:104EF0008091370190913801611571058105910507
:104F000021F464E279ED8BE597E02DE133EF41E0A8
:104F100050E00E94C42749015A019B01AC01A7EA55
:104F2000B1E40E94E3276B017C01ACEEB4EFA50174
:104F300094010E94F127C60ED71EE81EF91EF7FE47
:104F400006C081E0C81AD108E10880E8F80AC092DA
:104F50003501D0923601E0923701F0923801C70155
:104F6000B6019F77FF90EF90DF90CF90BF90AF900A
:104F70009F908F90089560933501709336018093D0
:104F80003701909338010895052E97FB1EF4009485
:104F90000E94DB2757FD07D00E94F62707FC03D0AD
:104FA0004EF40C94DB2750954095309521953F4F5A
:104FB0004F4F5F4F089590958095709561957F4F05
:104FC0008F4F9F4F08950E941828A59F900DB49F62
:104FD000900DA49F800D911D11240895B7FF0C948E
:104FE000E3270E94E327821B930B0895A1E21A2E68
:104FF000AA1BBB1BFD010DC0AA1FBB1FEE1FFF1F7D
:10500000A217B307E407F50720F0A21BB30BE40BCC
:10501000F50B661F771F881F991F1A9469F7609513
:105020007095809590959B01AC01BD01CF010895CD
:10503000A29FB001B39FC001A39F700D811D1124D9
:10504000911DB29F700D811D1124911D0895EE0FC9
:10505000FF1F0590F491E02D09940F931F93CF93B8
:10506000DF938230910510F482E090E0E091D90363
:10507000F091DA0330E020E0B0E0A0E0309799F45E
:105080002115310509F44AC0281B390B243031059C
:10509000D8F58A819B816115710589F1FB019383A4
:1050A0008283FE0111C04081518102811381481722
:1050B0005907E0F04817590799F4109761F01296D4
:1050C0000C93129713961C933296CF01DF91CF91D8
:1050D0001F910F9108950093D9031093DA03F4CF31
:1050E0002115310551F04217530738F0A901DB01B2
:1050F0009A01BD01DF01F801C1CFEF01F9CF909313
:10510000DA038093D903CDCFFE01E20FF31F819321
:1051100091932250310939832883D7CF2091D70327
:105120003091D803232B41F420913B0130913C0175
:105130003093D8032093D7032091390130913A015D
:105140002115310541F42DB73EB740913D015091F5
:105150003E01241B350BE091D703F091D803E217F1
:10516000F307A0F42E1B3F0B2817390778F0AC018A
:105170004E5F5F4F2417350748F04E0F5F1F509367
:10518000D8034093D703819391939FCFF0E0E0E061
:105190009CCFCF93DF930097E9F0FC013297138205
:1051A0001282A091D903B091DA03ED0130E020E042
:1051B0001097A1F420813181820F931F2091D70392
:1051C0003091D8032817390709F061C0F093D8034C
:1051D000E093D703DF91CF910895EA01CE17DF075F
:1051E000E8F54A815B819E0141155105B1F7E9015E
:1051F000FB83EA8349915991C40FD51FEC17FD0732
:1052000061F4808191810296840F951FE901998351
:105210008883828193819B838A83F0E0E0E0129609
:105220008D919C9113970097B9F52D913C91119711
:10523000CD010296820F931F2091D7033091D8039E
:105240002817390739F6309751F51092DA03109282
:10525000D903B093D803A093D703BCCFD383C28321
:1052600040815181840F951FC817D90761F44E5FA3
:105270005F4F88819981480F591F518340838A81EC
:105280009B81938382832115310509F0B0CFF09380
:10529000DA03E093D9039ECFFD01DC01C0CF138276
:1052A0001282D7CFFB01DC0102C001900D92415068
:1052B0005040D8F70895DC0101C06D934150504033
:1052C000E0F70895FB01DC0101900D920020E1F769
:1052D000089512E0C2EFD2E004C0FE010E94272828
:0C52E0002196C33FD107C9F7F894FFCF17
:1052EC000201426F61206E6F69746521000000003D
:1052FC0000000000000000000000000000000000A2
:10530C000000000000000000000000000000000091
:10531C000000000001010000000000DB0380000021
:10532C0000000031049103BE037E04EF03CD03E1C2
:10533C0003000000002C06350E4506440613230A14
:10534C005B5061726F6C61205363726F6C6C696E31
:10535C006720446973706C61795D0A5479706520BB
:10536C0061206D65737361676520666F7220746868
:10537C0065207363726F6C6C696E672064697370FF
:10538C006C61790A456E64206D6573736167652085
:10539C006C696E6520776974682061206E65776C26
:0453AC00696E6500C1
:00000001FF
